{
	"data": {
		"bytecode": {
			"linkReferences": {},
			"object": "6080604052348015600e575f80fd5b506137798061001c5f395ff3fe608060405234801561000f575f80fd5b5060043610610029575f3560e01c80632b4b40171461002d575b5f80fd5b610047600480360381019061004291906103c3565b61005d565b604051610054919061046e565b60405180910390f35b5f808585858560405161006f906101dc565b61007c94939291906104f6565b604051809103905ff080158015610095573d5f803e3d5ffd5b5090505f60405180606001604052808373ffffffffffffffffffffffffffffffffffffffff1681526020018681526020018581525090505f81908060018154018082558091505060019003905f5260205f2090600302015f909190919091505f820151815f015f6101000a81548173ffffffffffffffffffffffffffffffffffffffff021916908373ffffffffffffffffffffffffffffffffffffffff160217905550602082015181600101908161014d9190610741565b5060408201518160020190816101639190610741565b5050508673ffffffffffffffffffffffffffffffffffffffff168273ffffffffffffffffffffffffffffffffffffffff167f75c1f35492cd2bcb2820d5ff2434b9dc6d19432975f20761140109f0844a7b8a8888886040516101c793929190610810565b60405180910390a38192505050949350505050565b612ef08061085483390190565b5f604051905090565b5f80fd5b5f80fd5b5f73ffffffffffffffffffffffffffffffffffffffff82169050919050565b5f610223826101fa565b9050919050565b61023381610219565b811461023d575f80fd5b50565b5f8135905061024e8161022a565b92915050565b5f819050919050565b61026681610254565b8114610270575f80fd5b50565b5f813590506102818161025d565b92915050565b5f80fd5b5f80fd5b5f601f19601f8301169050919050565b7f4e487b71000000000000000000000000000000000000000000000000000000005f52604160045260245ffd5b6102d58261028f565b810181811067ffffffffffffffff821117156102f4576102f361029f565b5b80604052505050565b5f6103066101e9565b905061031282826102cc565b919050565b5f67ffffffffffffffff8211156103315761033061029f565b5b61033a8261028f565b9050602081019050919050565b828183375f83830152505050565b5f61036761036284610317565b6102fd565b9050828152602081018484840111156103835761038261028b565b5b61038e848285610347565b509392505050565b5f82601f8301126103aa576103a9610287565b5b81356103ba848260208601610355565b91505092915050565b5f805f80608085870312156103db576103da6101f2565b5b5f6103e887828801610240565b94505060206103f987828801610273565b935050604085013567ffffffffffffffff81111561041a576104196101f6565b5b61042687828801610396565b925050606085013567ffffffffffffffff811115610447576104466101f6565b5b61045387828801610396565b91505092959194509250565b61046881610219565b82525050565b5f6020820190506104815f83018461045f565b92915050565b61049081610254565b82525050565b5f81519050919050565b5f82825260208201905092915050565b8281835e5f83830152505050565b5f6104c882610496565b6104d281856104a0565b93506104e28185602086016104b0565b6104eb8161028f565b840191505092915050565b5f6080820190506105095f83018761045f565b6105166020830186610487565b818103604083015261052881856104be565b9050818103606083015261053c81846104be565b905095945050505050565b7f4e487b71000000000000000000000000000000000000000000000000000000005f52602260045260245ffd5b5f600282049050600182168061058b57607f821691505b60208210810361059e5761059d610547565b5b50919050565b5f819050815f5260205f209050919050565b5f6020601f8301049050919050565b5f82821b905092915050565b5f600883026106007fffffffffffffffffffffffffffffffffffffffffffffffffffffffffffffffff826105c5565b61060a86836105c5565b95508019841693508086168417925050509392505050565b5f819050919050565b5f61064561064061063b84610254565b610622565b610254565b9050919050565b5f819050919050565b61065e8361062b565b61067261066a8261064c565b8484546105d1565b825550505050565b5f90565b61068661067a565b610691818484610655565b505050565b5b818110156106b4576106a95f8261067e565b600181019050610697565b5050565b601f8211156106f9576106ca816105a4565b6106d3846105b6565b810160208510156106e2578190505b6106f66106ee856105b6565b830182610696565b50505b505050565b5f82821c905092915050565b5f6107195f19846008026106fe565b1980831691505092915050565b5f610731838361070a565b9150826002028217905092915050565b61074a82610496565b67ffffffffffffffff8111156107635761076261029f565b5b61076d8254610574565b6107788282856106b8565b5f60209050601f8311600181146107a9575f8415610797578287015190505b6107a18582610726565b865550610808565b601f1984166107b7866105a4565b5f5b828110156107de578489015182556001820191506020850194506020810190506107b9565b868310156107fb57848901516107f7601f89168261070a565b8355505b6001600288020188555050505b505050505050565b5f6060820190506108235f830186610487565b818103602083015261083581856104be565b9050818103604083015261084981846104be565b905094935050505056fe610160604052348015610010575f80fd5b50604051612ef0380380612ef083398181016040528101906100329190610893565b6040518060400160405280600581526020017f546f6b656e000000000000000000000000000000000000000000000000000000815250806040518060400160405280600181526020017f310000000000000000000000000000000000000000000000000000000000000081525086858581600390816100b19190610b33565b5080600490816100c19190610b33565b5050505f73ffffffffffffffffffffffffffffffffffffffff168173ffffffffffffffffffffffffffffffffffffffff1603610134575f6040517f1e4fbdf700000000000000000000000000000000000000000000000000000000815260040161012b9190610c11565b60405180910390fd5b6101438161023b60201b60201c565b506101586006836102fe60201b90919060201c565b61012081815250506101746007826102fe60201b90919060201c565b6101408181525050818051906020012060e08181525050808051906020012061010081815250504660a081815250506101b161034b60201b60201c565b608081815250503073ffffffffffffffffffffffffffffffffffffffff1660c08173ffffffffffffffffffffffffffffffffffffffff16815250505050506101fe8461023b60201b60201c565b610232336102106103a560201b60201c565b600a61021c9190610d92565b856102279190610ddc565b6103ad60201b60201c565b50505050611011565b5f60055f9054906101000a900473ffffffffffffffffffffffffffffffffffffffff1690508160055f6101000a81548173ffffffffffffffffffffffffffffffffffffffff021916908373ffffffffffffffffffffffffffffffffffffffff1602179055508173ffffffffffffffffffffffffffffffffffffffff168173ffffffffffffffffffffffffffffffffffffffff167f8be0079c531659141344cd1fd0a4f28419497f9722a3daafe3b4186f6b6457e060405160405180910390a35050565b5f60208351101561031f576103188361043260201b60201c565b9050610345565b8261032f8361049760201b60201c565b5f01908161033d9190610b33565b5060ff5f1b90505b92915050565b5f7f8b73c3c69bb8fe3d512ecc4cf759cc79239f7b179b0ffacaa9a75d522b39400f60e05161010051463060405160200161038a959493929190610e44565b60405160208183030381529060405280519060200120905090565b5f6012905090565b5f73ffffffffffffffffffffffffffffffffffffffff168273ffffffffffffffffffffffffffffffffffffffff160361041d575f6040517fec442f050000000000000000000000000000000000000000000000000000000081526004016104149190610c11565b60405180910390fd5b61042e5f83836104a060201b60201c565b5050565b5f80829050601f8151111561047e57826040517f305a27a90000000000000000000000000000000000000000000000000000000081526004016104759190610edd565b60405180910390fd5b80518161048a90610f2a565b5f1c175f1b915050919050565b5f819050919050565b5f73ffffffffffffffffffffffffffffffffffffffff168373ffffffffffffffffffffffffffffffffffffffff16036104f0578060025f8282546104e49190610f90565b925050819055506105be565b5f805f8573ffffffffffffffffffffffffffffffffffffffff1673ffffffffffffffffffffffffffffffffffffffff1681526020019081526020015f2054905081811015610579578381836040517fe450d38c00000000000000000000000000000000000000000000000000000000815260040161057093929190610fc3565b60405180910390fd5b8181035f808673ffffffffffffffffffffffffffffffffffffffff1673ffffffffffffffffffffffffffffffffffffffff1681526020019081526020015f2081905550505b5f73ffffffffffffffffffffffffffffffffffffffff168273ffffffffffffffffffffffffffffffffffffffff1603610605578060025f828254039250508190555061064f565b805f808473ffffffffffffffffffffffffffffffffffffffff1673ffffffffffffffffffffffffffffffffffffffff1681526020019081526020015f205f82825401925050819055505b8173ffffffffffffffffffffffffffffffffffffffff168373ffffffffffffffffffffffffffffffffffffffff167fddf252ad1be2c89b69c2b068fc378daa952ba7f163c4a11628f55a4df523b3ef836040516106ac9190610ff8565b60405180910390a3505050565b5f604051905090565b5f80fd5b5f80fd5b5f73ffffffffffffffffffffffffffffffffffffffff82169050919050565b5f6106f3826106ca565b9050919050565b610703816106e9565b811461070d575f80fd5b50565b5f8151905061071e816106fa565b92915050565b5f819050919050565b61073681610724565b8114610740575f80fd5b50565b5f815190506107518161072d565b92915050565b5f80fd5b5f80fd5b5f601f19601f8301169050919050565b7f4e487b71000000000000000000000000000000000000000000000000000000005f52604160045260245ffd5b6107a58261075f565b810181811067ffffffffffffffff821117156107c4576107c361076f565b5b80604052505050565b5f6107d66106b9565b90506107e2828261079c565b919050565b5f67ffffffffffffffff8211156108015761080061076f565b5b61080a8261075f565b9050602081019050919050565b8281835e5f83830152505050565b5f610837610832846107e7565b6107cd565b9050828152602081018484840111156108535761085261075b565b5b61085e848285610817565b509392505050565b5f82601f83011261087a57610879610757565b5b815161088a848260208601610825565b91505092915050565b5f805f80608085870312156108ab576108aa6106c2565b5b5f6108b887828801610710565b94505060206108c987828801610743565b935050604085015167ffffffffffffffff8111156108ea576108e96106c6565b5b6108f687828801610866565b925050606085015167ffffffffffffffff811115610917576109166106c6565b5b61092387828801610866565b91505092959194509250565b5f81519050919050565b7f4e487b71000000000000000000000000000000000000000000000000000000005f52602260045260245ffd5b5f600282049050600182168061097d57607f821691505b6020821081036109905761098f610939565b5b50919050565b5f819050815f5260205f209050919050565b5f6020601f8301049050919050565b5f82821b905092915050565b5f600883026109f27fffffffffffffffffffffffffffffffffffffffffffffffffffffffffffffffff826109b7565b6109fc86836109b7565b95508019841693508086168417925050509392505050565b5f819050919050565b5f610a37610a32610a2d84610724565b610a14565b610724565b9050919050565b5f819050919050565b610a5083610a1d565b610a64610a5c82610a3e565b8484546109c3565b825550505050565b5f90565b610a78610a6c565b610a83818484610a47565b505050565b5b81811015610aa657610a9b5f82610a70565b600181019050610a89565b5050565b601f821115610aeb57610abc81610996565b610ac5846109a8565b81016020851015610ad4578190505b610ae8610ae0856109a8565b830182610a88565b50505b505050565b5f82821c905092915050565b5f610b0b5f1984600802610af0565b1980831691505092915050565b5f610b238383610afc565b9150826002028217905092915050565b610b3c8261092f565b67ffffffffffffffff811115610b5557610b5461076f565b5b610b5f8254610966565b610b6a828285610aaa565b5f60209050601f831160018114610b9b575f8415610b89578287015190505b610b938582610b18565b865550610bfa565b601f198416610ba986610996565b5f5b82811015610bd057848901518255600182019150602085019450602081019050610bab565b86831015610bed5784890151610be9601f891682610afc565b8355505b6001600288020188555050505b505050505050565b610c0b816106e9565b82525050565b5f602082019050610c245f830184610c02565b92915050565b7f4e487b71000000000000000000000000000000000000000000000000000000005f52601160045260245ffd5b5f8160011c9050919050565b5f808291508390505b6001851115610cac57808604811115610c8857610c87610c2a565b5b6001851615610c975780820291505b8081029050610ca585610c57565b9450610c6c565b94509492505050565b5f82610cc45760019050610d7f565b81610cd1575f9050610d7f565b8160018114610ce75760028114610cf157610d20565b6001915050610d7f565b60ff841115610d0357610d02610c2a565b5b8360020a915084821115610d1a57610d19610c2a565b5b50610d7f565b5060208310610133831016604e8410600b8410161715610d555782820a905083811115610d5057610d4f610c2a565b5b610d7f565b610d628484846001610c63565b92509050818404811115610d7957610d78610c2a565b5b81810290505b9392505050565b5f60ff82169050919050565b5f610d9c82610724565b9150610da783610d86565b9250610dd47fffffffffffffffffffffffffffffffffffffffffffffffffffffffffffffffff8484610cb5565b905092915050565b5f610de682610724565b9150610df183610724565b9250828202610dff81610724565b91508282048414831517610e1657610e15610c2a565b5b5092915050565b5f819050919050565b610e2f81610e1d565b82525050565b610e3e81610724565b82525050565b5f60a082019050610e575f830188610e26565b610e646020830187610e26565b610e716040830186610e26565b610e7e6060830185610e35565b610e8b6080830184610c02565b9695505050505050565b5f82825260208201905092915050565b5f610eaf8261092f565b610eb98185610e95565b9350610ec9818560208601610817565b610ed28161075f565b840191505092915050565b5f6020820190508181035f830152610ef58184610ea5565b905092915050565b5f81519050919050565b5f819050602082019050919050565b5f610f218251610e1d565b80915050919050565b5f610f3482610efd565b82610f3e84610f07565b9050610f4981610f16565b92506020821015610f8957610f847fffffffffffffffffffffffffffffffffffffffffffffffffffffffffffffffff836020036008026109b7565b831692505b5050919050565b5f610f9a82610724565b9150610fa583610724565b9250828201905080821115610fbd57610fbc610c2a565b5b92915050565b5f606082019050610fd65f830186610c02565b610fe36020830185610e35565b610ff06040830184610e35565b949350505050565b5f60208201905061100b5f830184610e35565b92915050565b60805160a05160c05160e051610100516101205161014051611e8e6110625f395f610d4f01525f610d1401525f61124801525f61122701525f610a4901525f610a9f01525f610ac80152611e8e5ff3fe608060405234801561000f575f80fd5b5060043610610109575f3560e01c8063715018a6116100a057806395d89b411161006f57806395d89b41146102ad578063a9059cbb146102cb578063d505accf146102fb578063dd62ed3e14610317578063f2fde38b1461034757610109565b8063715018a6146102315780637ecebe001461023b57806384b0196e1461026b5780638da5cb5b1461028f57610109565b8063313ce567116100dc578063313ce567146101a95780633644e515146101c757806340c10f19146101e557806370a082311461020157610109565b806306fdde031461010d578063095ea7b31461012b57806318160ddd1461015b57806323b872dd14610179575b5f80fd5b610115610363565b60405161012291906116fe565b60405180910390f35b610145600480360381019061014091906117af565b6103f3565b6040516101529190611807565b60405180910390f35b610163610415565b604051610170919061182f565b60405180910390f35b610193600480360381019061018e9190611848565b61041e565b6040516101a09190611807565b60405180910390f35b6101b161044c565b6040516101be91906118b3565b60405180910390f35b6101cf610454565b6040516101dc91906118e4565b60405180910390f35b6101ff60048036038101906101fa91906117af565b610462565b005b61021b600480360381019061021691906118fd565b610478565b604051610228919061182f565b60405180910390f35b6102396104bd565b005b610255600480360381019061025091906118fd565b6104d0565b604051610262919061182f565b60405180910390f35b6102736104e1565b6040516102869796959493929190611a28565b60405180910390f35b610297610586565b6040516102a49190611aaa565b60405180910390f35b6102b56105ae565b6040516102c291906116fe565b60405180910390f35b6102e560048036038101906102e091906117af565b61063e565b6040516102f29190611807565b60405180910390f35b61031560048036038101906103109190611b17565b610660565b005b610331600480360381019061032c9190611bb4565b6107a5565b60405161033e919061182f565b60405180910390f35b610361600480360381019061035c91906118fd565b610827565b005b60606003805461037290611c1f565b80601f016020809104026020016040519081016040528092919081815260200182805461039e90611c1f565b80156103e95780601f106103c0576101008083540402835291602001916103e9565b820191905f5260205f20905b8154815290600101906020018083116103cc57829003601f168201915b5050505050905090565b5f806103fd6108ab565b905061040a8185856108b2565b600191505092915050565b5f600254905090565b5f806104286108ab565b90506104358582856108c4565b610440858585610956565b60019150509392505050565b5f6012905090565b5f61045d610a46565b905090565b61046a610afc565b6104748282610b83565b5050565b5f805f8373ffffffffffffffffffffffffffffffffffffffff1673ffffffffffffffffffffffffffffffffffffffff1681526020019081526020015f20549050919050565b6104c5610afc565b6104ce5f610c02565b565b5f6104da82610cc5565b9050919050565b5f6060805f805f60606104f2610d0b565b6104fa610d46565b46305f801b5f67ffffffffffffffff81111561051957610518611c4f565b5b6040519080825280602002602001820160405280156105475781602001602082028036833780820191505090505b507f0f00000000000000000000000000000000000000000000000000000000000000959493929190965096509650965096509650965090919293949596565b5f60055f9054906101000a900473ffffffffffffffffffffffffffffffffffffffff16905090565b6060600480546105bd90611c1f565b80601f01602080910402602001604051908101604052809291908181526020018280546105e990611c1f565b80156106345780601f1061060b57610100808354040283529160200191610634565b820191905f5260205f20905b81548152906001019060200180831161061757829003601f168201915b5050505050905090565b5f806106486108ab565b9050610655818585610956565b600191505092915050565b834211156106a557836040517f6279130200000000000000000000000000000000000000000000000000000000815260040161069c919061182f565b60405180910390fd5b5f7f6e71edae12b1b97f4d1f60370fef10105fa2faae0126114a169c64845d6126c98888886106d38c610d81565b896040516020016106e996959493929190611c7c565b6040516020818303038152906040528051906020012090505f61070b82610dd4565b90505f61071a82878787610ded565b90508973ffffffffffffffffffffffffffffffffffffffff168173ffffffffffffffffffffffffffffffffffffffff161461078e57808a6040517f4b800e46000000000000000000000000000000000000000000000000000000008152600401610785929190611cdb565b60405180910390fd5b6107998a8a8a6108b2565b50505050505050505050565b5f60015f8473ffffffffffffffffffffffffffffffffffffffff1673ffffffffffffffffffffffffffffffffffffffff1681526020019081526020015f205f8373ffffffffffffffffffffffffffffffffffffffff1673ffffffffffffffffffffffffffffffffffffffff1681526020019081526020015f2054905092915050565b61082f610afc565b5f73ffffffffffffffffffffffffffffffffffffffff168173ffffffffffffffffffffffffffffffffffffffff160361089f575f6040517f1e4fbdf70000000000000000000000000000000000000000000000000000000081526004016108969190611aaa565b60405180910390fd5b6108a881610c02565b50565b5f33905090565b6108bf8383836001610e1b565b505050565b5f6108cf84846107a5565b90507fffffffffffffffffffffffffffffffffffffffffffffffffffffffffffffffff81146109505781811015610941578281836040517ffb8f41b200000000000000000000000000000000000000000000000000000000815260040161093893929190611d02565b60405180910390fd5b61094f84848484035f610e1b565b5b50505050565b5f73ffffffffffffffffffffffffffffffffffffffff168373ffffffffffffffffffffffffffffffffffffffff16036109c6575f6040517f96c6fd1e0000000000000000000000000000000000000000000000000000000081526004016109bd9190611aaa565b60405180910390fd5b5f73ffffffffffffffffffffffffffffffffffffffff168273ffffffffffffffffffffffffffffffffffffffff1603610a36575f6040517fec442f05000000000000000000000000000000000000000000000000000000008152600401610a2d9190611aaa565b60405180910390fd5b610a41838383610fea565b505050565b5f7f000000000000000000000000000000000000000000000000000000000000000073ffffffffffffffffffffffffffffffffffffffff163073ffffffffffffffffffffffffffffffffffffffff16148015610ac157507f000000000000000000000000000000000000000000000000000000000000000046145b15610aee577f00000000000000000000000000000000000000000000000000000000000000009050610af9565b610af6611203565b90505b90565b610b046108ab565b73ffffffffffffffffffffffffffffffffffffffff16610b22610586565b73ffffffffffffffffffffffffffffffffffffffff1614610b8157610b456108ab565b6040517f118cdaa7000000000000000000000000000000000000000000000000000000008152600401610b789190611aaa565b60405180910390fd5b565b5f73ffffffffffffffffffffffffffffffffffffffff168273ffffffffffffffffffffffffffffffffffffffff1603610bf3575f6040517fec442f05000000000000000000000000000000000000000000000000000000008152600401610bea9190611aaa565b60405180910390fd5b610bfe5f8383610fea565b5050565b5f60055f9054906101000a900473ffffffffffffffffffffffffffffffffffffffff1690508160055f6101000a81548173ffffffffffffffffffffffffffffffffffffffff021916908373ffffffffffffffffffffffffffffffffffffffff1602179055508173ffffffffffffffffffffffffffffffffffffffff168173ffffffffffffffffffffffffffffffffffffffff167f8be0079c531659141344cd1fd0a4f28419497f9722a3daafe3b4186f6b6457e060405160405180910390a35050565b5f60085f8373ffffffffffffffffffffffffffffffffffffffff1673ffffffffffffffffffffffffffffffffffffffff1681526020019081526020015f20549050919050565b6060610d4160067f000000000000000000000000000000000000000000000000000000000000000061129890919063ffffffff16565b905090565b6060610d7c60077f000000000000000000000000000000000000000000000000000000000000000061129890919063ffffffff16565b905090565b5f60085f8373ffffffffffffffffffffffffffffffffffffffff1673ffffffffffffffffffffffffffffffffffffffff1681526020019081526020015f205f815480929190600101919050559050919050565b5f610de6610de0610a46565b83611345565b9050919050565b5f805f80610dfd88888888611385565b925092509250610e0d828261146c565b829350505050949350505050565b5f73ffffffffffffffffffffffffffffffffffffffff168473ffffffffffffffffffffffffffffffffffffffff1603610e8b575f6040517fe602df05000000000000000000000000000000000000000000000000000000008152600401610e829190611aaa565b60405180910390fd5b5f73ffffffffffffffffffffffffffffffffffffffff168373ffffffffffffffffffffffffffffffffffffffff1603610efb575f6040517f94280d62000000000000000000000000000000000000000000000000000000008152600401610ef29190611aaa565b60405180910390fd5b8160015f8673ffffffffffffffffffffffffffffffffffffffff1673ffffffffffffffffffffffffffffffffffffffff1681526020019081526020015f205f8573ffffffffffffffffffffffffffffffffffffffff1673ffffffffffffffffffffffffffffffffffffffff1681526020019081526020015f20819055508015610fe4578273ffffffffffffffffffffffffffffffffffffffff168473ffffffffffffffffffffffffffffffffffffffff167f8c5be1e5ebec7d5bd14f71427d1e84f3dd0314c0f7b2291e5b200ac8c7c3b92584604051610fdb919061182f565b60405180910390a35b50505050565b5f73ffffffffffffffffffffffffffffffffffffffff168373ffffffffffffffffffffffffffffffffffffffff160361103a578060025f82825461102e9190611d64565b92505081905550611108565b5f805f8573ffffffffffffffffffffffffffffffffffffffff1673ffffffffffffffffffffffffffffffffffffffff1681526020019081526020015f20549050818110156110c3578381836040517fe450d38c0000000000000000000000000000000000000000000000000000000081526004016110ba93929190611d02565b60405180910390fd5b8181035f808673ffffffffffffffffffffffffffffffffffffffff1673ffffffffffffffffffffffffffffffffffffffff1681526020019081526020015f2081905550505b5f73ffffffffffffffffffffffffffffffffffffffff168273ffffffffffffffffffffffffffffffffffffffff160361114f578060025f8282540392505081905550611199565b805f808473ffffffffffffffffffffffffffffffffffffffff1673ffffffffffffffffffffffffffffffffffffffff1681526020019081526020015f205f82825401925050819055505b8173ffffffffffffffffffffffffffffffffffffffff168373ffffffffffffffffffffffffffffffffffffffff167fddf252ad1be2c89b69c2b068fc378daa952ba7f163c4a11628f55a4df523b3ef836040516111f6919061182f565b60405180910390a3505050565b5f7f8b73c3c69bb8fe3d512ecc4cf759cc79239f7b179b0ffacaa9a75d522b39400f7f00000000000000000000000000000000000000000000000000000000000000007f0000000000000000000000000000000000000000000000000000000000000000463060405160200161127d959493929190611d97565b60405160208183030381529060405280519060200120905090565b606060ff5f1b83146112b4576112ad836115ce565b905061133f565b8180546112c090611c1f565b80601f01602080910402602001604051908101604052809291908181526020018280546112ec90611c1f565b80156113375780601f1061130e57610100808354040283529160200191611337565b820191905f5260205f20905b81548152906001019060200180831161131a57829003601f168201915b505050505090505b92915050565b5f6040517f190100000000000000000000000000000000000000000000000000000000000081528360028201528260228201526042812091505092915050565b5f805f7f7fffffffffffffffffffffffffffffff5d576e7357a4501ddfe92f46681b20a0845f1c11156113c1575f600385925092509250611462565b5f6001888888886040515f81526020016040526040516113e49493929190611de8565b6020604051602081039080840390855afa158015611404573d5f803e3d5ffd5b5050506020604051035190505f73ffffffffffffffffffffffffffffffffffffffff168173ffffffffffffffffffffffffffffffffffffffff1603611455575f60015f801b93509350935050611462565b805f805f1b935093509350505b9450945094915050565b5f600381111561147f5761147e611e2b565b5b82600381111561149257611491611e2b565b5b03156115ca57600160038111156114ac576114ab611e2b565b5b8260038111156114bf576114be611e2b565b5b036114f6576040517ff645eedf00000000000000000000000000000000000000000000000000000000815260040160405180910390fd5b6002600381111561150a57611509611e2b565b5b82600381111561151d5761151c611e2b565b5b0361156157805f1c6040517ffce698f7000000000000000000000000000000000000000000000000000000008152600401611558919061182f565b60405180910390fd5b60038081111561157457611573611e2b565b5b82600381111561158757611586611e2b565b5b036115c957806040517fd78bce0c0000000000000000000000000000000000000000000000000000000081526004016115c091906118e4565b60405180910390fd5b5b5050565b60605f6115da83611640565b90505f602067ffffffffffffffff8111156115f8576115f7611c4f565b5b6040519080825280601f01601f19166020018201604052801561162a5781602001600182028036833780820191505090505b5090508181528360208201528092505050919050565b5f8060ff835f1c169050601f811115611685576040517fb3512b0c00000000000000000000000000000000000000000000000000000000815260040160405180910390fd5b80915050919050565b5f81519050919050565b5f82825260208201905092915050565b8281835e5f83830152505050565b5f601f19601f8301169050919050565b5f6116d08261168e565b6116da8185611698565b93506116ea8185602086016116a8565b6116f3816116b6565b840191505092915050565b5f6020820190508181035f83015261171681846116c6565b905092915050565b5f80fd5b5f73ffffffffffffffffffffffffffffffffffffffff82169050919050565b5f61174b82611722565b9050919050565b61175b81611741565b8114611765575f80fd5b50565b5f8135905061177681611752565b92915050565b5f819050919050565b61178e8161177c565b8114611798575f80fd5b50565b5f813590506117a981611785565b92915050565b5f80604083850312156117c5576117c461171e565b5b5f6117d285828601611768565b92505060206117e38582860161179b565b9150509250929050565b5f8115159050919050565b611801816117ed565b82525050565b5f60208201905061181a5f8301846117f8565b92915050565b6118298161177c565b82525050565b5f6020820190506118425f830184611820565b92915050565b5f805f6060848603121561185f5761185e61171e565b5b5f61186c86828701611768565b935050602061187d86828701611768565b925050604061188e8682870161179b565b9150509250925092565b5f60ff82169050919050565b6118ad81611898565b82525050565b5f6020820190506118c65f8301846118a4565b92915050565b5f819050919050565b6118de816118cc565b82525050565b5f6020820190506118f75f8301846118d5565b92915050565b5f602082840312156119125761191161171e565b5b5f61191f84828501611768565b91505092915050565b5f7fff0000000000000000000000000000000000000000000000000000000000000082169050919050565b61195c81611928565b82525050565b61196b81611741565b82525050565b5f81519050919050565b5f82825260208201905092915050565b5f819050602082019050919050565b6119a38161177c565b82525050565b5f6119b4838361199a565b60208301905092915050565b5f602082019050919050565b5f6119d682611971565b6119e0818561197b565b93506119eb8361198b565b805f5b83811015611a1b578151611a0288826119a9565b9750611a0d836119c0565b9250506001810190506119ee565b5085935050505092915050565b5f60e082019050611a3b5f83018a611953565b8181036020830152611a4d81896116c6565b90508181036040830152611a6181886116c6565b9050611a706060830187611820565b611a7d6080830186611962565b611a8a60a08301856118d5565b81810360c0830152611a9c81846119cc565b905098975050505050505050565b5f602082019050611abd5f830184611962565b92915050565b611acc81611898565b8114611ad6575f80fd5b50565b5f81359050611ae781611ac3565b92915050565b611af6816118cc565b8114611b00575f80fd5b50565b5f81359050611b1181611aed565b92915050565b5f805f805f805f60e0888a031215611b3257611b3161171e565b5b5f611b3f8a828b01611768565b9750506020611b508a828b01611768565b9650506040611b618a828b0161179b565b9550506060611b728a828b0161179b565b9450506080611b838a828b01611ad9565b93505060a0611b948a828b01611b03565b92505060c0611ba58a828b01611b03565b91505092959891949750929550565b5f8060408385031215611bca57611bc961171e565b5b5f611bd785828601611768565b9250506020611be885828601611768565b9150509250929050565b7f4e487b71000000000000000000000000000000000000000000000000000000005f52602260045260245ffd5b5f6002820490506001821680611c3657607f821691505b602082108103611c4957611c48611bf2565b5b50919050565b7f4e487b71000000000000000000000000000000000000000000000000000000005f52604160045260245ffd5b5f60c082019050611c8f5f8301896118d5565b611c9c6020830188611962565b611ca96040830187611962565b611cb66060830186611820565b611cc36080830185611820565b611cd060a0830184611820565b979650505050505050565b5f604082019050611cee5f830185611962565b611cfb6020830184611962565b9392505050565b5f606082019050611d155f830186611962565b611d226020830185611820565b611d2f6040830184611820565b949350505050565b7f4e487b71000000000000000000000000000000000000000000000000000000005f52601160045260245ffd5b5f611d6e8261177c565b9150611d798361177c565b9250828201905080821115611d9157611d90611d37565b5b92915050565b5f60a082019050611daa5f8301886118d5565b611db760208301876118d5565b611dc460408301866118d5565b611dd16060830185611820565b611dde6080830184611962565b9695505050505050565b5f608082019050611dfb5f8301876118d5565b611e0860208301866118a4565b611e1560408301856118d5565b611e2260608301846118d5565b95945050505050565b7f4e487b71000000000000000000000000000000000000000000000000000000005f52602160045260245ffdfea2646970667358221220ef5a0f8166c897c8eae57cff4eb96a3f7aa561011c2d477ed4fe81341ffee9bc64736f6c634300081a0033a2646970667358221220e860b191519567606923e6df223cf8689d5ad6283dd66a1e841a5f7c1664863064736f6c634300081a0033",
			"opcodes": "PUSH1 0x80 PUSH1 0x40 MSTORE CALLVALUE DUP1 ISZERO PUSH1 0xE JUMPI PUSH0 DUP1 REVERT JUMPDEST POP PUSH2 0x3779 DUP1 PUSH2 0x1C PUSH0 CODECOPY PUSH0 RETURN INVALID PUSH1 0x80 PUSH1 0x40 MSTORE CALLVALUE DUP1 ISZERO PUSH2 0xF JUMPI PUSH0 DUP1 REVERT JUMPDEST POP PUSH1 0x4 CALLDATASIZE LT PUSH2 0x29 JUMPI PUSH0 CALLDATALOAD PUSH1 0xE0 SHR DUP1 PUSH4 0x2B4B4017 EQ PUSH2 0x2D JUMPI JUMPDEST PUSH0 DUP1 REVERT JUMPDEST PUSH2 0x47 PUSH1 0x4 DUP1 CALLDATASIZE SUB DUP2 ADD SWAP1 PUSH2 0x42 SWAP2 SWAP1 PUSH2 0x3C3 JUMP JUMPDEST PUSH2 0x5D JUMP JUMPDEST PUSH1 0x40 MLOAD PUSH2 0x54 SWAP2 SWAP1 PUSH2 0x46E JUMP JUMPDEST PUSH1 0x40 MLOAD DUP1 SWAP2 SUB SWAP1 RETURN JUMPDEST PUSH0 DUP1 DUP6 DUP6 DUP6 DUP6 PUSH1 0x40 MLOAD PUSH2 0x6F SWAP1 PUSH2 0x1DC JUMP JUMPDEST PUSH2 0x7C SWAP5 SWAP4 SWAP3 SWAP2 SWAP1 PUSH2 0x4F6 JUMP JUMPDEST PUSH1 0x40 MLOAD DUP1 SWAP2 SUB SWAP1 PUSH0 CREATE DUP1 ISZERO DUP1 ISZERO PUSH2 0x95 JUMPI RETURNDATASIZE PUSH0 DUP1 RETURNDATACOPY RETURNDATASIZE PUSH0 REVERT JUMPDEST POP SWAP1 POP PUSH0 PUSH1 0x40 MLOAD DUP1 PUSH1 0x60 ADD PUSH1 0x40 MSTORE DUP1 DUP4 PUSH20 0xFFFFFFFFFFFFFFFFFFFFFFFFFFFFFFFFFFFFFFFF AND DUP2 MSTORE PUSH1 0x20 ADD DUP7 DUP2 MSTORE PUSH1 0x20 ADD DUP6 DUP2 MSTORE POP SWAP1 POP PUSH0 DUP2 SWAP1 DUP1 PUSH1 0x1 DUP2 SLOAD ADD DUP1 DUP3 SSTORE DUP1 SWAP2 POP POP PUSH1 0x1 SWAP1 SUB SWAP1 PUSH0 MSTORE PUSH1 0x20 PUSH0 KECCAK256 SWAP1 PUSH1 0x3 MUL ADD PUSH0 SWAP1 SWAP2 SWAP1 SWAP2 SWAP1 SWAP2 POP PUSH0 DUP3 ADD MLOAD DUP2 PUSH0 ADD PUSH0 PUSH2 0x100 EXP DUP2 SLOAD DUP2 PUSH20 0xFFFFFFFFFFFFFFFFFFFFFFFFFFFFFFFFFFFFFFFF MUL NOT AND SWAP1 DUP4 PUSH20 0xFFFFFFFFFFFFFFFFFFFFFFFFFFFFFFFFFFFFFFFF AND MUL OR SWAP1 SSTORE POP PUSH1 0x20 DUP3 ADD MLOAD DUP2 PUSH1 0x1 ADD SWAP1 DUP2 PUSH2 0x14D SWAP2 SWAP1 PUSH2 0x741 JUMP JUMPDEST POP PUSH1 0x40 DUP3 ADD MLOAD DUP2 PUSH1 0x2 ADD SWAP1 DUP2 PUSH2 0x163 SWAP2 SWAP1 PUSH2 0x741 JUMP JUMPDEST POP POP POP DUP7 PUSH20 0xFFFFFFFFFFFFFFFFFFFFFFFFFFFFFFFFFFFFFFFF AND DUP3 PUSH20 0xFFFFFFFFFFFFFFFFFFFFFFFFFFFFFFFFFFFFFFFF AND PUSH32 0x75C1F35492CD2BCB2820D5FF2434B9DC6D19432975F20761140109F0844A7B8A DUP9 DUP9 DUP9 PUSH1 0x40 MLOAD PUSH2 0x1C7 SWAP4 SWAP3 SWAP2 SWAP1 PUSH2 0x810 JUMP JUMPDEST PUSH1 0x40 MLOAD DUP1 SWAP2 SUB SWAP1 LOG3 DUP2 SWAP3 POP POP POP SWAP5 SWAP4 POP POP POP POP JUMP JUMPDEST PUSH2 0x2EF0 DUP1 PUSH2 0x854 DUP4 CODECOPY ADD SWAP1 JUMP JUMPDEST PUSH0 PUSH1 0x40 MLOAD SWAP1 POP SWAP1 JUMP JUMPDEST PUSH0 DUP1 REVERT JUMPDEST PUSH0 DUP1 REVERT JUMPDEST PUSH0 PUSH20 0xFFFFFFFFFFFFFFFFFFFFFFFFFFFFFFFFFFFFFFFF DUP3 AND SWAP1 POP SWAP2 SWAP1 POP JUMP JUMPDEST PUSH0 PUSH2 0x223 DUP3 PUSH2 0x1FA JUMP JUMPDEST SWAP1 POP SWAP2 SWAP1 POP JUMP JUMPDEST PUSH2 0x233 DUP2 PUSH2 0x219 JUMP JUMPDEST DUP2 EQ PUSH2 0x23D JUMPI PUSH0 DUP1 REVERT JUMPDEST POP JUMP JUMPDEST PUSH0 DUP2 CALLDATALOAD SWAP1 POP PUSH2 0x24E DUP2 PUSH2 0x22A JUMP JUMPDEST SWAP3 SWAP2 POP POP JUMP JUMPDEST PUSH0 DUP2 SWAP1 POP SWAP2 SWAP1 POP JUMP JUMPDEST PUSH2 0x266 DUP2 PUSH2 0x254 JUMP JUMPDEST DUP2 EQ PUSH2 0x270 JUMPI PUSH0 DUP1 REVERT JUMPDEST POP JUMP JUMPDEST PUSH0 DUP2 CALLDATALOAD SWAP1 POP PUSH2 0x281 DUP2 PUSH2 0x25D JUMP JUMPDEST SWAP3 SWAP2 POP POP JUMP JUMPDEST PUSH0 DUP1 REVERT JUMPDEST PUSH0 DUP1 REVERT JUMPDEST PUSH0 PUSH1 0x1F NOT PUSH1 0x1F DUP4 ADD AND SWAP1 POP SWAP2 SWAP1 POP JUMP JUMPDEST PUSH32 0x4E487B7100000000000000000000000000000000000000000000000000000000 PUSH0 MSTORE PUSH1 0x41 PUSH1 0x4 MSTORE PUSH1 0x24 PUSH0 REVERT JUMPDEST PUSH2 0x2D5 DUP3 PUSH2 0x28F JUMP JUMPDEST DUP2 ADD DUP2 DUP2 LT PUSH8 0xFFFFFFFFFFFFFFFF DUP3 GT OR ISZERO PUSH2 0x2F4 JUMPI PUSH2 0x2F3 PUSH2 0x29F JUMP JUMPDEST JUMPDEST DUP1 PUSH1 0x40 MSTORE POP POP POP JUMP JUMPDEST PUSH0 PUSH2 0x306 PUSH2 0x1E9 JUMP JUMPDEST SWAP1 POP PUSH2 0x312 DUP3 DUP3 PUSH2 0x2CC JUMP JUMPDEST SWAP2 SWAP1 POP JUMP JUMPDEST PUSH0 PUSH8 0xFFFFFFFFFFFFFFFF DUP3 GT ISZERO PUSH2 0x331 JUMPI PUSH2 0x330 PUSH2 0x29F JUMP JUMPDEST JUMPDEST PUSH2 0x33A DUP3 PUSH2 0x28F JUMP JUMPDEST SWAP1 POP PUSH1 0x20 DUP2 ADD SWAP1 POP SWAP2 SWAP1 POP JUMP JUMPDEST DUP3 DUP2 DUP4 CALLDATACOPY PUSH0 DUP4 DUP4 ADD MSTORE POP POP POP JUMP JUMPDEST PUSH0 PUSH2 0x367 PUSH2 0x362 DUP5 PUSH2 0x317 JUMP JUMPDEST PUSH2 0x2FD JUMP JUMPDEST SWAP1 POP DUP3 DUP2 MSTORE PUSH1 0x20 DUP2 ADD DUP5 DUP5 DUP5 ADD GT ISZERO PUSH2 0x383 JUMPI PUSH2 0x382 PUSH2 0x28B JUMP JUMPDEST JUMPDEST PUSH2 0x38E DUP5 DUP3 DUP6 PUSH2 0x347 JUMP JUMPDEST POP SWAP4 SWAP3 POP POP POP JUMP JUMPDEST PUSH0 DUP3 PUSH1 0x1F DUP4 ADD SLT PUSH2 0x3AA JUMPI PUSH2 0x3A9 PUSH2 0x287 JUMP JUMPDEST JUMPDEST DUP2 CALLDATALOAD PUSH2 0x3BA DUP5 DUP3 PUSH1 0x20 DUP7 ADD PUSH2 0x355 JUMP JUMPDEST SWAP2 POP POP SWAP3 SWAP2 POP POP JUMP JUMPDEST PUSH0 DUP1 PUSH0 DUP1 PUSH1 0x80 DUP6 DUP8 SUB SLT ISZERO PUSH2 0x3DB JUMPI PUSH2 0x3DA PUSH2 0x1F2 JUMP JUMPDEST JUMPDEST PUSH0 PUSH2 0x3E8 DUP8 DUP3 DUP9 ADD PUSH2 0x240 JUMP JUMPDEST SWAP5 POP POP PUSH1 0x20 PUSH2 0x3F9 DUP8 DUP3 DUP9 ADD PUSH2 0x273 JUMP JUMPDEST SWAP4 POP POP PUSH1 0x40 DUP6 ADD CALLDATALOAD PUSH8 0xFFFFFFFFFFFFFFFF DUP2 GT ISZERO PUSH2 0x41A JUMPI PUSH2 0x419 PUSH2 0x1F6 JUMP JUMPDEST JUMPDEST PUSH2 0x426 DUP8 DUP3 DUP9 ADD PUSH2 0x396 JUMP JUMPDEST SWAP3 POP POP PUSH1 0x60 DUP6 ADD CALLDATALOAD PUSH8 0xFFFFFFFFFFFFFFFF DUP2 GT ISZERO PUSH2 0x447 JUMPI PUSH2 0x446 PUSH2 0x1F6 JUMP JUMPDEST JUMPDEST PUSH2 0x453 DUP8 DUP3 DUP9 ADD PUSH2 0x396 JUMP JUMPDEST SWAP2 POP POP SWAP3 SWAP6 SWAP2 SWAP5 POP SWAP3 POP JUMP JUMPDEST PUSH2 0x468 DUP2 PUSH2 0x219 JUMP JUMPDEST DUP3 MSTORE POP POP JUMP JUMPDEST PUSH0 PUSH1 0x20 DUP3 ADD SWAP1 POP PUSH2 0x481 PUSH0 DUP4 ADD DUP5 PUSH2 0x45F JUMP JUMPDEST SWAP3 SWAP2 POP POP JUMP JUMPDEST PUSH2 0x490 DUP2 PUSH2 0x254 JUMP JUMPDEST DUP3 MSTORE POP POP JUMP JUMPDEST PUSH0 DUP2 MLOAD SWAP1 POP SWAP2 SWAP1 POP JUMP JUMPDEST PUSH0 DUP3 DUP3 MSTORE PUSH1 0x20 DUP3 ADD SWAP1 POP SWAP3 SWAP2 POP POP JUMP JUMPDEST DUP3 DUP2 DUP4 MCOPY PUSH0 DUP4 DUP4 ADD MSTORE POP POP POP JUMP JUMPDEST PUSH0 PUSH2 0x4C8 DUP3 PUSH2 0x496 JUMP JUMPDEST PUSH2 0x4D2 DUP2 DUP6 PUSH2 0x4A0 JUMP JUMPDEST SWAP4 POP PUSH2 0x4E2 DUP2 DUP6 PUSH1 0x20 DUP7 ADD PUSH2 0x4B0 JUMP JUMPDEST PUSH2 0x4EB DUP2 PUSH2 0x28F JUMP JUMPDEST DUP5 ADD SWAP2 POP POP SWAP3 SWAP2 POP POP JUMP JUMPDEST PUSH0 PUSH1 0x80 DUP3 ADD SWAP1 POP PUSH2 0x509 PUSH0 DUP4 ADD DUP8 PUSH2 0x45F JUMP JUMPDEST PUSH2 0x516 PUSH1 0x20 DUP4 ADD DUP7 PUSH2 0x487 JUMP JUMPDEST DUP2 DUP2 SUB PUSH1 0x40 DUP4 ADD MSTORE PUSH2 0x528 DUP2 DUP6 PUSH2 0x4BE JUMP JUMPDEST SWAP1 POP DUP2 DUP2 SUB PUSH1 0x60 DUP4 ADD MSTORE PUSH2 0x53C DUP2 DUP5 PUSH2 0x4BE JUMP JUMPDEST SWAP1 POP SWAP6 SWAP5 POP POP POP POP POP JUMP JUMPDEST PUSH32 0x4E487B7100000000000000000000000000000000000000000000000000000000 PUSH0 MSTORE PUSH1 0x22 PUSH1 0x4 MSTORE PUSH1 0x24 PUSH0 REVERT JUMPDEST PUSH0 PUSH1 0x2 DUP3 DIV SWAP1 POP PUSH1 0x1 DUP3 AND DUP1 PUSH2 0x58B JUMPI PUSH1 0x7F DUP3 AND SWAP2 POP JUMPDEST PUSH1 0x20 DUP3 LT DUP2 SUB PUSH2 0x59E JUMPI PUSH2 0x59D PUSH2 0x547 JUMP JUMPDEST JUMPDEST POP SWAP2 SWAP1 POP JUMP JUMPDEST PUSH0 DUP2 SWAP1 POP DUP2 PUSH0 MSTORE PUSH1 0x20 PUSH0 KECCAK256 SWAP1 POP SWAP2 SWAP1 POP JUMP JUMPDEST PUSH0 PUSH1 0x20 PUSH1 0x1F DUP4 ADD DIV SWAP1 POP SWAP2 SWAP1 POP JUMP JUMPDEST PUSH0 DUP3 DUP3 SHL SWAP1 POP SWAP3 SWAP2 POP POP JUMP JUMPDEST PUSH0 PUSH1 0x8 DUP4 MUL PUSH2 0x600 PUSH32 0xFFFFFFFFFFFFFFFFFFFFFFFFFFFFFFFFFFFFFFFFFFFFFFFFFFFFFFFFFFFFFFFF DUP3 PUSH2 0x5C5 JUMP JUMPDEST PUSH2 0x60A DUP7 DUP4 PUSH2 0x5C5 JUMP JUMPDEST SWAP6 POP DUP1 NOT DUP5 AND SWAP4 POP DUP1 DUP7 AND DUP5 OR SWAP3 POP POP POP SWAP4 SWAP3 POP POP POP JUMP JUMPDEST PUSH0 DUP2 SWAP1 POP SWAP2 SWAP1 POP JUMP JUMPDEST PUSH0 PUSH2 0x645 PUSH2 0x640 PUSH2 0x63B DUP5 PUSH2 0x254 JUMP JUMPDEST PUSH2 0x622 JUMP JUMPDEST PUSH2 0x254 JUMP JUMPDEST SWAP1 POP SWAP2 SWAP1 POP JUMP JUMPDEST PUSH0 DUP2 SWAP1 POP SWAP2 SWAP1 POP JUMP JUMPDEST PUSH2 0x65E DUP4 PUSH2 0x62B JUMP JUMPDEST PUSH2 0x672 PUSH2 0x66A DUP3 PUSH2 0x64C JUMP JUMPDEST DUP5 DUP5 SLOAD PUSH2 0x5D1 JUMP JUMPDEST DUP3 SSTORE POP POP POP POP JUMP JUMPDEST PUSH0 SWAP1 JUMP JUMPDEST PUSH2 0x686 PUSH2 0x67A JUMP JUMPDEST PUSH2 0x691 DUP2 DUP5 DUP5 PUSH2 0x655 JUMP JUMPDEST POP POP POP JUMP JUMPDEST JUMPDEST DUP2 DUP2 LT ISZERO PUSH2 0x6B4 JUMPI PUSH2 0x6A9 PUSH0 DUP3 PUSH2 0x67E JUMP JUMPDEST PUSH1 0x1 DUP2 ADD SWAP1 POP PUSH2 0x697 JUMP JUMPDEST POP POP JUMP JUMPDEST PUSH1 0x1F DUP3 GT ISZERO PUSH2 0x6F9 JUMPI PUSH2 0x6CA DUP2 PUSH2 0x5A4 JUMP JUMPDEST PUSH2 0x6D3 DUP5 PUSH2 0x5B6 JUMP JUMPDEST DUP2 ADD PUSH1 0x20 DUP6 LT ISZERO PUSH2 0x6E2 JUMPI DUP2 SWAP1 POP JUMPDEST PUSH2 0x6F6 PUSH2 0x6EE DUP6 PUSH2 0x5B6 JUMP JUMPDEST DUP4 ADD DUP3 PUSH2 0x696 JUMP JUMPDEST POP POP JUMPDEST POP POP POP JUMP JUMPDEST PUSH0 DUP3 DUP3 SHR SWAP1 POP SWAP3 SWAP2 POP POP JUMP JUMPDEST PUSH0 PUSH2 0x719 PUSH0 NOT DUP5 PUSH1 0x8 MUL PUSH2 0x6FE JUMP JUMPDEST NOT DUP1 DUP4 AND SWAP2 POP POP SWAP3 SWAP2 POP POP JUMP JUMPDEST PUSH0 PUSH2 0x731 DUP4 DUP4 PUSH2 0x70A JUMP JUMPDEST SWAP2 POP DUP3 PUSH1 0x2 MUL DUP3 OR SWAP1 POP SWAP3 SWAP2 POP POP JUMP JUMPDEST PUSH2 0x74A DUP3 PUSH2 0x496 JUMP JUMPDEST PUSH8 0xFFFFFFFFFFFFFFFF DUP2 GT ISZERO PUSH2 0x763 JUMPI PUSH2 0x762 PUSH2 0x29F JUMP JUMPDEST JUMPDEST PUSH2 0x76D DUP3 SLOAD PUSH2 0x574 JUMP JUMPDEST PUSH2 0x778 DUP3 DUP3 DUP6 PUSH2 0x6B8 JUMP JUMPDEST PUSH0 PUSH1 0x20 SWAP1 POP PUSH1 0x1F DUP4 GT PUSH1 0x1 DUP2 EQ PUSH2 0x7A9 JUMPI PUSH0 DUP5 ISZERO PUSH2 0x797 JUMPI DUP3 DUP8 ADD MLOAD SWAP1 POP JUMPDEST PUSH2 0x7A1 DUP6 DUP3 PUSH2 0x726 JUMP JUMPDEST DUP7 SSTORE POP PUSH2 0x808 JUMP JUMPDEST PUSH1 0x1F NOT DUP5 AND PUSH2 0x7B7 DUP7 PUSH2 0x5A4 JUMP JUMPDEST PUSH0 JUMPDEST DUP3 DUP2 LT ISZERO PUSH2 0x7DE JUMPI DUP5 DUP10 ADD MLOAD DUP3 SSTORE PUSH1 0x1 DUP3 ADD SWAP2 POP PUSH1 0x20 DUP6 ADD SWAP5 POP PUSH1 0x20 DUP2 ADD SWAP1 POP PUSH2 0x7B9 JUMP JUMPDEST DUP7 DUP4 LT ISZERO PUSH2 0x7FB JUMPI DUP5 DUP10 ADD MLOAD PUSH2 0x7F7 PUSH1 0x1F DUP10 AND DUP3 PUSH2 0x70A JUMP JUMPDEST DUP4 SSTORE POP JUMPDEST PUSH1 0x1 PUSH1 0x2 DUP9 MUL ADD DUP9 SSTORE POP POP POP JUMPDEST POP POP POP POP POP POP JUMP JUMPDEST PUSH0 PUSH1 0x60 DUP3 ADD SWAP1 POP PUSH2 0x823 PUSH0 DUP4 ADD DUP7 PUSH2 0x487 JUMP JUMPDEST DUP2 DUP2 SUB PUSH1 0x20 DUP4 ADD MSTORE PUSH2 0x835 DUP2 DUP6 PUSH2 0x4BE JUMP JUMPDEST SWAP1 POP DUP2 DUP2 SUB PUSH1 0x40 DUP4 ADD MSTORE PUSH2 0x849 DUP2 DUP5 PUSH2 0x4BE JUMP JUMPDEST SWAP1 POP SWAP5 SWAP4 POP POP POP POP JUMP INVALID PUSH2 0x160 PUSH1 0x40 MSTORE CALLVALUE DUP1 ISZERO PUSH2 0x10 JUMPI PUSH0 DUP1 REVERT JUMPDEST POP PUSH1 0x40 MLOAD PUSH2 0x2EF0 CODESIZE SUB DUP1 PUSH2 0x2EF0 DUP4 CODECOPY DUP2 DUP2 ADD PUSH1 0x40 MSTORE DUP2 ADD SWAP1 PUSH2 0x32 SWAP2 SWAP1 PUSH2 0x893 JUMP JUMPDEST PUSH1 0x40 MLOAD DUP1 PUSH1 0x40 ADD PUSH1 0x40 MSTORE DUP1 PUSH1 0x5 DUP2 MSTORE PUSH1 0x20 ADD PUSH32 0x546F6B656E000000000000000000000000000000000000000000000000000000 DUP2 MSTORE POP DUP1 PUSH1 0x40 MLOAD DUP1 PUSH1 0x40 ADD PUSH1 0x40 MSTORE DUP1 PUSH1 0x1 DUP2 MSTORE PUSH1 0x20 ADD PUSH32 0x3100000000000000000000000000000000000000000000000000000000000000 DUP2 MSTORE POP DUP7 DUP6 DUP6 DUP2 PUSH1 0x3 SWAP1 DUP2 PUSH2 0xB1 SWAP2 SWAP1 PUSH2 0xB33 JUMP JUMPDEST POP DUP1 PUSH1 0x4 SWAP1 DUP2 PUSH2 0xC1 SWAP2 SWAP1 PUSH2 0xB33 JUMP JUMPDEST POP POP POP PUSH0 PUSH20 0xFFFFFFFFFFFFFFFFFFFFFFFFFFFFFFFFFFFFFFFF AND DUP2 PUSH20 0xFFFFFFFFFFFFFFFFFFFFFFFFFFFFFFFFFFFFFFFF AND SUB PUSH2 0x134 JUMPI PUSH0 PUSH1 0x40 MLOAD PUSH32 0x1E4FBDF700000000000000000000000000000000000000000000000000000000 DUP2 MSTORE PUSH1 0x4 ADD PUSH2 0x12B SWAP2 SWAP1 PUSH2 0xC11 JUMP JUMPDEST PUSH1 0x40 MLOAD DUP1 SWAP2 SUB SWAP1 REVERT JUMPDEST PUSH2 0x143 DUP2 PUSH2 0x23B PUSH1 0x20 SHL PUSH1 0x20 SHR JUMP JUMPDEST POP PUSH2 0x158 PUSH1 0x6 DUP4 PUSH2 0x2FE PUSH1 0x20 SHL SWAP1 SWAP2 SWAP1 PUSH1 0x20 SHR JUMP JUMPDEST PUSH2 0x120 DUP2 DUP2 MSTORE POP POP PUSH2 0x174 PUSH1 0x7 DUP3 PUSH2 0x2FE PUSH1 0x20 SHL SWAP1 SWAP2 SWAP1 PUSH1 0x20 SHR JUMP JUMPDEST PUSH2 0x140 DUP2 DUP2 MSTORE POP POP DUP2 DUP1 MLOAD SWAP1 PUSH1 0x20 ADD KECCAK256 PUSH1 0xE0 DUP2 DUP2 MSTORE POP POP DUP1 DUP1 MLOAD SWAP1 PUSH1 0x20 ADD KECCAK256 PUSH2 0x100 DUP2 DUP2 MSTORE POP POP CHAINID PUSH1 0xA0 DUP2 DUP2 MSTORE POP POP PUSH2 0x1B1 PUSH2 0x34B PUSH1 0x20 SHL PUSH1 0x20 SHR JUMP JUMPDEST PUSH1 0x80 DUP2 DUP2 MSTORE POP POP ADDRESS PUSH20 0xFFFFFFFFFFFFFFFFFFFFFFFFFFFFFFFFFFFFFFFF AND PUSH1 0xC0 DUP2 PUSH20 0xFFFFFFFFFFFFFFFFFFFFFFFFFFFFFFFFFFFFFFFF AND DUP2 MSTORE POP POP POP POP POP PUSH2 0x1FE DUP5 PUSH2 0x23B PUSH1 0x20 SHL PUSH1 0x20 SHR JUMP JUMPDEST PUSH2 0x232 CALLER PUSH2 0x210 PUSH2 0x3A5 PUSH1 0x20 SHL PUSH1 0x20 SHR JUMP JUMPDEST PUSH1 0xA PUSH2 0x21C SWAP2 SWAP1 PUSH2 0xD92 JUMP JUMPDEST DUP6 PUSH2 0x227 SWAP2 SWAP1 PUSH2 0xDDC JUMP JUMPDEST PUSH2 0x3AD PUSH1 0x20 SHL PUSH1 0x20 SHR JUMP JUMPDEST POP POP POP POP PUSH2 0x1011 JUMP JUMPDEST PUSH0 PUSH1 0x5 PUSH0 SWAP1 SLOAD SWAP1 PUSH2 0x100 EXP SWAP1 DIV PUSH20 0xFFFFFFFFFFFFFFFFFFFFFFFFFFFFFFFFFFFFFFFF AND SWAP1 POP DUP2 PUSH1 0x5 PUSH0 PUSH2 0x100 EXP DUP2 SLOAD DUP2 PUSH20 0xFFFFFFFFFFFFFFFFFFFFFFFFFFFFFFFFFFFFFFFF MUL NOT AND SWAP1 DUP4 PUSH20 0xFFFFFFFFFFFFFFFFFFFFFFFFFFFFFFFFFFFFFFFF AND MUL OR SWAP1 SSTORE POP DUP2 PUSH20 0xFFFFFFFFFFFFFFFFFFFFFFFFFFFFFFFFFFFFFFFF AND DUP2 PUSH20 0xFFFFFFFFFFFFFFFFFFFFFFFFFFFFFFFFFFFFFFFF AND PUSH32 0x8BE0079C531659141344CD1FD0A4F28419497F9722A3DAAFE3B4186F6B6457E0 PUSH1 0x40 MLOAD PUSH1 0x40 MLOAD DUP1 SWAP2 SUB SWAP1 LOG3 POP POP JUMP JUMPDEST PUSH0 PUSH1 0x20 DUP4 MLOAD LT ISZERO PUSH2 0x31F JUMPI PUSH2 0x318 DUP4 PUSH2 0x432 PUSH1 0x20 SHL PUSH1 0x20 SHR JUMP JUMPDEST SWAP1 POP PUSH2 0x345 JUMP JUMPDEST DUP3 PUSH2 0x32F DUP4 PUSH2 0x497 PUSH1 0x20 SHL PUSH1 0x20 SHR JUMP JUMPDEST PUSH0 ADD SWAP1 DUP2 PUSH2 0x33D SWAP2 SWAP1 PUSH2 0xB33 JUMP JUMPDEST POP PUSH1 0xFF PUSH0 SHL SWAP1 POP JUMPDEST SWAP3 SWAP2 POP POP JUMP JUMPDEST PUSH0 PUSH32 0x8B73C3C69BB8FE3D512ECC4CF759CC79239F7B179B0FFACAA9A75D522B39400F PUSH1 0xE0 MLOAD PUSH2 0x100 MLOAD CHAINID ADDRESS PUSH1 0x40 MLOAD PUSH1 0x20 ADD PUSH2 0x38A SWAP6 SWAP5 SWAP4 SWAP3 SWAP2 SWAP1 PUSH2 0xE44 JUMP JUMPDEST PUSH1 0x40 MLOAD PUSH1 0x20 DUP2 DUP4 SUB SUB DUP2 MSTORE SWAP1 PUSH1 0x40 MSTORE DUP1 MLOAD SWAP1 PUSH1 0x20 ADD KECCAK256 SWAP1 POP SWAP1 JUMP JUMPDEST PUSH0 PUSH1 0x12 SWAP1 POP SWAP1 JUMP JUMPDEST PUSH0 PUSH20 0xFFFFFFFFFFFFFFFFFFFFFFFFFFFFFFFFFFFFFFFF AND DUP3 PUSH20 0xFFFFFFFFFFFFFFFFFFFFFFFFFFFFFFFFFFFFFFFF AND SUB PUSH2 0x41D JUMPI PUSH0 PUSH1 0x40 MLOAD PUSH32 0xEC442F0500000000000000000000000000000000000000000000000000000000 DUP2 MSTORE PUSH1 0x4 ADD PUSH2 0x414 SWAP2 SWAP1 PUSH2 0xC11 JUMP JUMPDEST PUSH1 0x40 MLOAD DUP1 SWAP2 SUB SWAP1 REVERT JUMPDEST PUSH2 0x42E PUSH0 DUP4 DUP4 PUSH2 0x4A0 PUSH1 0x20 SHL PUSH1 0x20 SHR JUMP JUMPDEST POP POP JUMP JUMPDEST PUSH0 DUP1 DUP3 SWAP1 POP PUSH1 0x1F DUP2 MLOAD GT ISZERO PUSH2 0x47E JUMPI DUP3 PUSH1 0x40 MLOAD PUSH32 0x305A27A900000000000000000000000000000000000000000000000000000000 DUP2 MSTORE PUSH1 0x4 ADD PUSH2 0x475 SWAP2 SWAP1 PUSH2 0xEDD JUMP JUMPDEST PUSH1 0x40 MLOAD DUP1 SWAP2 SUB SWAP1 REVERT JUMPDEST DUP1 MLOAD DUP2 PUSH2 0x48A SWAP1 PUSH2 0xF2A JUMP JUMPDEST PUSH0 SHR OR PUSH0 SHL SWAP2 POP POP SWAP2 SWAP1 POP JUMP JUMPDEST PUSH0 DUP2 SWAP1 POP SWAP2 SWAP1 POP JUMP JUMPDEST PUSH0 PUSH20 0xFFFFFFFFFFFFFFFFFFFFFFFFFFFFFFFFFFFFFFFF AND DUP4 PUSH20 0xFFFFFFFFFFFFFFFFFFFFFFFFFFFFFFFFFFFFFFFF AND SUB PUSH2 0x4F0 JUMPI DUP1 PUSH1 0x2 PUSH0 DUP3 DUP3 SLOAD PUSH2 0x4E4 SWAP2 SWAP1 PUSH2 0xF90 JUMP JUMPDEST SWAP3 POP POP DUP2 SWAP1 SSTORE POP PUSH2 0x5BE JUMP JUMPDEST PUSH0 DUP1 PUSH0 DUP6 PUSH20 0xFFFFFFFFFFFFFFFFFFFFFFFFFFFFFFFFFFFFFFFF AND PUSH20 0xFFFFFFFFFFFFFFFFFFFFFFFFFFFFFFFFFFFFFFFF AND DUP2 MSTORE PUSH1 0x20 ADD SWAP1 DUP2 MSTORE PUSH1 0x20 ADD PUSH0 KECCAK256 SLOAD SWAP1 POP DUP2 DUP2 LT ISZERO PUSH2 0x579 JUMPI DUP4 DUP2 DUP4 PUSH1 0x40 MLOAD PUSH32 0xE450D38C00000000000000000000000000000000000000000000000000000000 DUP2 MSTORE PUSH1 0x4 ADD PUSH2 0x570 SWAP4 SWAP3 SWAP2 SWAP1 PUSH2 0xFC3 JUMP JUMPDEST PUSH1 0x40 MLOAD DUP1 SWAP2 SUB SWAP1 REVERT JUMPDEST DUP2 DUP2 SUB PUSH0 DUP1 DUP7 PUSH20 0xFFFFFFFFFFFFFFFFFFFFFFFFFFFFFFFFFFFFFFFF AND PUSH20 0xFFFFFFFFFFFFFFFFFFFFFFFFFFFFFFFFFFFFFFFF AND DUP2 MSTORE PUSH1 0x20 ADD SWAP1 DUP2 MSTORE PUSH1 0x20 ADD PUSH0 KECCAK256 DUP2 SWAP1 SSTORE POP POP JUMPDEST PUSH0 PUSH20 0xFFFFFFFFFFFFFFFFFFFFFFFFFFFFFFFFFFFFFFFF AND DUP3 PUSH20 0xFFFFFFFFFFFFFFFFFFFFFFFFFFFFFFFFFFFFFFFF AND SUB PUSH2 0x605 JUMPI DUP1 PUSH1 0x2 PUSH0 DUP3 DUP3 SLOAD SUB SWAP3 POP POP DUP2 SWAP1 SSTORE POP PUSH2 0x64F JUMP JUMPDEST DUP1 PUSH0 DUP1 DUP5 PUSH20 0xFFFFFFFFFFFFFFFFFFFFFFFFFFFFFFFFFFFFFFFF AND PUSH20 0xFFFFFFFFFFFFFFFFFFFFFFFFFFFFFFFFFFFFFFFF AND DUP2 MSTORE PUSH1 0x20 ADD SWAP1 DUP2 MSTORE PUSH1 0x20 ADD PUSH0 KECCAK256 PUSH0 DUP3 DUP3 SLOAD ADD SWAP3 POP POP DUP2 SWAP1 SSTORE POP JUMPDEST DUP2 PUSH20 0xFFFFFFFFFFFFFFFFFFFFFFFFFFFFFFFFFFFFFFFF AND DUP4 PUSH20 0xFFFFFFFFFFFFFFFFFFFFFFFFFFFFFFFFFFFFFFFF AND PUSH32 0xDDF252AD1BE2C89B69C2B068FC378DAA952BA7F163C4A11628F55A4DF523B3EF DUP4 PUSH1 0x40 MLOAD PUSH2 0x6AC SWAP2 SWAP1 PUSH2 0xFF8 JUMP JUMPDEST PUSH1 0x40 MLOAD DUP1 SWAP2 SUB SWAP1 LOG3 POP POP POP JUMP JUMPDEST PUSH0 PUSH1 0x40 MLOAD SWAP1 POP SWAP1 JUMP JUMPDEST PUSH0 DUP1 REVERT JUMPDEST PUSH0 DUP1 REVERT JUMPDEST PUSH0 PUSH20 0xFFFFFFFFFFFFFFFFFFFFFFFFFFFFFFFFFFFFFFFF DUP3 AND SWAP1 POP SWAP2 SWAP1 POP JUMP JUMPDEST PUSH0 PUSH2 0x6F3 DUP3 PUSH2 0x6CA JUMP JUMPDEST SWAP1 POP SWAP2 SWAP1 POP JUMP JUMPDEST PUSH2 0x703 DUP2 PUSH2 0x6E9 JUMP JUMPDEST DUP2 EQ PUSH2 0x70D JUMPI PUSH0 DUP1 REVERT JUMPDEST POP JUMP JUMPDEST PUSH0 DUP2 MLOAD SWAP1 POP PUSH2 0x71E DUP2 PUSH2 0x6FA JUMP JUMPDEST SWAP3 SWAP2 POP POP JUMP JUMPDEST PUSH0 DUP2 SWAP1 POP SWAP2 SWAP1 POP JUMP JUMPDEST PUSH2 0x736 DUP2 PUSH2 0x724 JUMP JUMPDEST DUP2 EQ PUSH2 0x740 JUMPI PUSH0 DUP1 REVERT JUMPDEST POP JUMP JUMPDEST PUSH0 DUP2 MLOAD SWAP1 POP PUSH2 0x751 DUP2 PUSH2 0x72D JUMP JUMPDEST SWAP3 SWAP2 POP POP JUMP JUMPDEST PUSH0 DUP1 REVERT JUMPDEST PUSH0 DUP1 REVERT JUMPDEST PUSH0 PUSH1 0x1F NOT PUSH1 0x1F DUP4 ADD AND SWAP1 POP SWAP2 SWAP1 POP JUMP JUMPDEST PUSH32 0x4E487B7100000000000000000000000000000000000000000000000000000000 PUSH0 MSTORE PUSH1 0x41 PUSH1 0x4 MSTORE PUSH1 0x24 PUSH0 REVERT JUMPDEST PUSH2 0x7A5 DUP3 PUSH2 0x75F JUMP JUMPDEST DUP2 ADD DUP2 DUP2 LT PUSH8 0xFFFFFFFFFFFFFFFF DUP3 GT OR ISZERO PUSH2 0x7C4 JUMPI PUSH2 0x7C3 PUSH2 0x76F JUMP JUMPDEST JUMPDEST DUP1 PUSH1 0x40 MSTORE POP POP POP JUMP JUMPDEST PUSH0 PUSH2 0x7D6 PUSH2 0x6B9 JUMP JUMPDEST SWAP1 POP PUSH2 0x7E2 DUP3 DUP3 PUSH2 0x79C JUMP JUMPDEST SWAP2 SWAP1 POP JUMP JUMPDEST PUSH0 PUSH8 0xFFFFFFFFFFFFFFFF DUP3 GT ISZERO PUSH2 0x801 JUMPI PUSH2 0x800 PUSH2 0x76F JUMP JUMPDEST JUMPDEST PUSH2 0x80A DUP3 PUSH2 0x75F JUMP JUMPDEST SWAP1 POP PUSH1 0x20 DUP2 ADD SWAP1 POP SWAP2 SWAP1 POP JUMP JUMPDEST DUP3 DUP2 DUP4 MCOPY PUSH0 DUP4 DUP4 ADD MSTORE POP POP POP JUMP JUMPDEST PUSH0 PUSH2 0x837 PUSH2 0x832 DUP5 PUSH2 0x7E7 JUMP JUMPDEST PUSH2 0x7CD JUMP JUMPDEST SWAP1 POP DUP3 DUP2 MSTORE PUSH1 0x20 DUP2 ADD DUP5 DUP5 DUP5 ADD GT ISZERO PUSH2 0x853 JUMPI PUSH2 0x852 PUSH2 0x75B JUMP JUMPDEST JUMPDEST PUSH2 0x85E DUP5 DUP3 DUP6 PUSH2 0x817 JUMP JUMPDEST POP SWAP4 SWAP3 POP POP POP JUMP JUMPDEST PUSH0 DUP3 PUSH1 0x1F DUP4 ADD SLT PUSH2 0x87A JUMPI PUSH2 0x879 PUSH2 0x757 JUMP JUMPDEST JUMPDEST DUP2 MLOAD PUSH2 0x88A DUP5 DUP3 PUSH1 0x20 DUP7 ADD PUSH2 0x825 JUMP JUMPDEST SWAP2 POP POP SWAP3 SWAP2 POP POP JUMP JUMPDEST PUSH0 DUP1 PUSH0 DUP1 PUSH1 0x80 DUP6 DUP8 SUB SLT ISZERO PUSH2 0x8AB JUMPI PUSH2 0x8AA PUSH2 0x6C2 JUMP JUMPDEST JUMPDEST PUSH0 PUSH2 0x8B8 DUP8 DUP3 DUP9 ADD PUSH2 0x710 JUMP JUMPDEST SWAP5 POP POP PUSH1 0x20 PUSH2 0x8C9 DUP8 DUP3 DUP9 ADD PUSH2 0x743 JUMP JUMPDEST SWAP4 POP POP PUSH1 0x40 DUP6 ADD MLOAD PUSH8 0xFFFFFFFFFFFFFFFF DUP2 GT ISZERO PUSH2 0x8EA JUMPI PUSH2 0x8E9 PUSH2 0x6C6 JUMP JUMPDEST JUMPDEST PUSH2 0x8F6 DUP8 DUP3 DUP9 ADD PUSH2 0x866 JUMP JUMPDEST SWAP3 POP POP PUSH1 0x60 DUP6 ADD MLOAD PUSH8 0xFFFFFFFFFFFFFFFF DUP2 GT ISZERO PUSH2 0x917 JUMPI PUSH2 0x916 PUSH2 0x6C6 JUMP JUMPDEST JUMPDEST PUSH2 0x923 DUP8 DUP3 DUP9 ADD PUSH2 0x866 JUMP JUMPDEST SWAP2 POP POP SWAP3 SWAP6 SWAP2 SWAP5 POP SWAP3 POP JUMP JUMPDEST PUSH0 DUP2 MLOAD SWAP1 POP SWAP2 SWAP1 POP JUMP JUMPDEST PUSH32 0x4E487B7100000000000000000000000000000000000000000000000000000000 PUSH0 MSTORE PUSH1 0x22 PUSH1 0x4 MSTORE PUSH1 0x24 PUSH0 REVERT JUMPDEST PUSH0 PUSH1 0x2 DUP3 DIV SWAP1 POP PUSH1 0x1 DUP3 AND DUP1 PUSH2 0x97D JUMPI PUSH1 0x7F DUP3 AND SWAP2 POP JUMPDEST PUSH1 0x20 DUP3 LT DUP2 SUB PUSH2 0x990 JUMPI PUSH2 0x98F PUSH2 0x939 JUMP JUMPDEST JUMPDEST POP SWAP2 SWAP1 POP JUMP JUMPDEST PUSH0 DUP2 SWAP1 POP DUP2 PUSH0 MSTORE PUSH1 0x20 PUSH0 KECCAK256 SWAP1 POP SWAP2 SWAP1 POP JUMP JUMPDEST PUSH0 PUSH1 0x20 PUSH1 0x1F DUP4 ADD DIV SWAP1 POP SWAP2 SWAP1 POP JUMP JUMPDEST PUSH0 DUP3 DUP3 SHL SWAP1 POP SWAP3 SWAP2 POP POP JUMP JUMPDEST PUSH0 PUSH1 0x8 DUP4 MUL PUSH2 0x9F2 PUSH32 0xFFFFFFFFFFFFFFFFFFFFFFFFFFFFFFFFFFFFFFFFFFFFFFFFFFFFFFFFFFFFFFFF DUP3 PUSH2 0x9B7 JUMP JUMPDEST PUSH2 0x9FC DUP7 DUP4 PUSH2 0x9B7 JUMP JUMPDEST SWAP6 POP DUP1 NOT DUP5 AND SWAP4 POP DUP1 DUP7 AND DUP5 OR SWAP3 POP POP POP SWAP4 SWAP3 POP POP POP JUMP JUMPDEST PUSH0 DUP2 SWAP1 POP SWAP2 SWAP1 POP JUMP JUMPDEST PUSH0 PUSH2 0xA37 PUSH2 0xA32 PUSH2 0xA2D DUP5 PUSH2 0x724 JUMP JUMPDEST PUSH2 0xA14 JUMP JUMPDEST PUSH2 0x724 JUMP JUMPDEST SWAP1 POP SWAP2 SWAP1 POP JUMP JUMPDEST PUSH0 DUP2 SWAP1 POP SWAP2 SWAP1 POP JUMP JUMPDEST PUSH2 0xA50 DUP4 PUSH2 0xA1D JUMP JUMPDEST PUSH2 0xA64 PUSH2 0xA5C DUP3 PUSH2 0xA3E JUMP JUMPDEST DUP5 DUP5 SLOAD PUSH2 0x9C3 JUMP JUMPDEST DUP3 SSTORE POP POP POP POP JUMP JUMPDEST PUSH0 SWAP1 JUMP JUMPDEST PUSH2 0xA78 PUSH2 0xA6C JUMP JUMPDEST PUSH2 0xA83 DUP2 DUP5 DUP5 PUSH2 0xA47 JUMP JUMPDEST POP POP POP JUMP JUMPDEST JUMPDEST DUP2 DUP2 LT ISZERO PUSH2 0xAA6 JUMPI PUSH2 0xA9B PUSH0 DUP3 PUSH2 0xA70 JUMP JUMPDEST PUSH1 0x1 DUP2 ADD SWAP1 POP PUSH2 0xA89 JUMP JUMPDEST POP POP JUMP JUMPDEST PUSH1 0x1F DUP3 GT ISZERO PUSH2 0xAEB JUMPI PUSH2 0xABC DUP2 PUSH2 0x996 JUMP JUMPDEST PUSH2 0xAC5 DUP5 PUSH2 0x9A8 JUMP JUMPDEST DUP2 ADD PUSH1 0x20 DUP6 LT ISZERO PUSH2 0xAD4 JUMPI DUP2 SWAP1 POP JUMPDEST PUSH2 0xAE8 PUSH2 0xAE0 DUP6 PUSH2 0x9A8 JUMP JUMPDEST DUP4 ADD DUP3 PUSH2 0xA88 JUMP JUMPDEST POP POP JUMPDEST POP POP POP JUMP JUMPDEST PUSH0 DUP3 DUP3 SHR SWAP1 POP SWAP3 SWAP2 POP POP JUMP JUMPDEST PUSH0 PUSH2 0xB0B PUSH0 NOT DUP5 PUSH1 0x8 MUL PUSH2 0xAF0 JUMP JUMPDEST NOT DUP1 DUP4 AND SWAP2 POP POP SWAP3 SWAP2 POP POP JUMP JUMPDEST PUSH0 PUSH2 0xB23 DUP4 DUP4 PUSH2 0xAFC JUMP JUMPDEST SWAP2 POP DUP3 PUSH1 0x2 MUL DUP3 OR SWAP1 POP SWAP3 SWAP2 POP POP JUMP JUMPDEST PUSH2 0xB3C DUP3 PUSH2 0x92F JUMP JUMPDEST PUSH8 0xFFFFFFFFFFFFFFFF DUP2 GT ISZERO PUSH2 0xB55 JUMPI PUSH2 0xB54 PUSH2 0x76F JUMP JUMPDEST JUMPDEST PUSH2 0xB5F DUP3 SLOAD PUSH2 0x966 JUMP JUMPDEST PUSH2 0xB6A DUP3 DUP3 DUP6 PUSH2 0xAAA JUMP JUMPDEST PUSH0 PUSH1 0x20 SWAP1 POP PUSH1 0x1F DUP4 GT PUSH1 0x1 DUP2 EQ PUSH2 0xB9B JUMPI PUSH0 DUP5 ISZERO PUSH2 0xB89 JUMPI DUP3 DUP8 ADD MLOAD SWAP1 POP JUMPDEST PUSH2 0xB93 DUP6 DUP3 PUSH2 0xB18 JUMP JUMPDEST DUP7 SSTORE POP PUSH2 0xBFA JUMP JUMPDEST PUSH1 0x1F NOT DUP5 AND PUSH2 0xBA9 DUP7 PUSH2 0x996 JUMP JUMPDEST PUSH0 JUMPDEST DUP3 DUP2 LT ISZERO PUSH2 0xBD0 JUMPI DUP5 DUP10 ADD MLOAD DUP3 SSTORE PUSH1 0x1 DUP3 ADD SWAP2 POP PUSH1 0x20 DUP6 ADD SWAP5 POP PUSH1 0x20 DUP2 ADD SWAP1 POP PUSH2 0xBAB JUMP JUMPDEST DUP7 DUP4 LT ISZERO PUSH2 0xBED JUMPI DUP5 DUP10 ADD MLOAD PUSH2 0xBE9 PUSH1 0x1F DUP10 AND DUP3 PUSH2 0xAFC JUMP JUMPDEST DUP4 SSTORE POP JUMPDEST PUSH1 0x1 PUSH1 0x2 DUP9 MUL ADD DUP9 SSTORE POP POP POP JUMPDEST POP POP POP POP POP POP JUMP JUMPDEST PUSH2 0xC0B DUP2 PUSH2 0x6E9 JUMP JUMPDEST DUP3 MSTORE POP POP JUMP JUMPDEST PUSH0 PUSH1 0x20 DUP3 ADD SWAP1 POP PUSH2 0xC24 PUSH0 DUP4 ADD DUP5 PUSH2 0xC02 JUMP JUMPDEST SWAP3 SWAP2 POP POP JUMP JUMPDEST PUSH32 0x4E487B7100000000000000000000000000000000000000000000000000000000 PUSH0 MSTORE PUSH1 0x11 PUSH1 0x4 MSTORE PUSH1 0x24 PUSH0 REVERT JUMPDEST PUSH0 DUP2 PUSH1 0x1 SHR SWAP1 POP SWAP2 SWAP1 POP JUMP JUMPDEST PUSH0 DUP1 DUP3 SWAP2 POP DUP4 SWAP1 POP JUMPDEST PUSH1 0x1 DUP6 GT ISZERO PUSH2 0xCAC JUMPI DUP1 DUP7 DIV DUP2 GT ISZERO PUSH2 0xC88 JUMPI PUSH2 0xC87 PUSH2 0xC2A JUMP JUMPDEST JUMPDEST PUSH1 0x1 DUP6 AND ISZERO PUSH2 0xC97 JUMPI DUP1 DUP3 MUL SWAP2 POP JUMPDEST DUP1 DUP2 MUL SWAP1 POP PUSH2 0xCA5 DUP6 PUSH2 0xC57 JUMP JUMPDEST SWAP5 POP PUSH2 0xC6C JUMP JUMPDEST SWAP5 POP SWAP5 SWAP3 POP POP POP JUMP JUMPDEST PUSH0 DUP3 PUSH2 0xCC4 JUMPI PUSH1 0x1 SWAP1 POP PUSH2 0xD7F JUMP JUMPDEST DUP2 PUSH2 0xCD1 JUMPI PUSH0 SWAP1 POP PUSH2 0xD7F JUMP JUMPDEST DUP2 PUSH1 0x1 DUP2 EQ PUSH2 0xCE7 JUMPI PUSH1 0x2 DUP2 EQ PUSH2 0xCF1 JUMPI PUSH2 0xD20 JUMP JUMPDEST PUSH1 0x1 SWAP2 POP POP PUSH2 0xD7F JUMP JUMPDEST PUSH1 0xFF DUP5 GT ISZERO PUSH2 0xD03 JUMPI PUSH2 0xD02 PUSH2 0xC2A JUMP JUMPDEST JUMPDEST DUP4 PUSH1 0x2 EXP SWAP2 POP DUP5 DUP3 GT ISZERO PUSH2 0xD1A JUMPI PUSH2 0xD19 PUSH2 0xC2A JUMP JUMPDEST JUMPDEST POP PUSH2 0xD7F JUMP JUMPDEST POP PUSH1 0x20 DUP4 LT PUSH2 0x133 DUP4 LT AND PUSH1 0x4E DUP5 LT PUSH1 0xB DUP5 LT AND OR ISZERO PUSH2 0xD55 JUMPI DUP3 DUP3 EXP SWAP1 POP DUP4 DUP2 GT ISZERO PUSH2 0xD50 JUMPI PUSH2 0xD4F PUSH2 0xC2A JUMP JUMPDEST JUMPDEST PUSH2 0xD7F JUMP JUMPDEST PUSH2 0xD62 DUP5 DUP5 DUP5 PUSH1 0x1 PUSH2 0xC63 JUMP JUMPDEST SWAP3 POP SWAP1 POP DUP2 DUP5 DIV DUP2 GT ISZERO PUSH2 0xD79 JUMPI PUSH2 0xD78 PUSH2 0xC2A JUMP JUMPDEST JUMPDEST DUP2 DUP2 MUL SWAP1 POP JUMPDEST SWAP4 SWAP3 POP POP POP JUMP JUMPDEST PUSH0 PUSH1 0xFF DUP3 AND SWAP1 POP SWAP2 SWAP1 POP JUMP JUMPDEST PUSH0 PUSH2 0xD9C DUP3 PUSH2 0x724 JUMP JUMPDEST SWAP2 POP PUSH2 0xDA7 DUP4 PUSH2 0xD86 JUMP JUMPDEST SWAP3 POP PUSH2 0xDD4 PUSH32 0xFFFFFFFFFFFFFFFFFFFFFFFFFFFFFFFFFFFFFFFFFFFFFFFFFFFFFFFFFFFFFFFF DUP5 DUP5 PUSH2 0xCB5 JUMP JUMPDEST SWAP1 POP SWAP3 SWAP2 POP POP JUMP JUMPDEST PUSH0 PUSH2 0xDE6 DUP3 PUSH2 0x724 JUMP JUMPDEST SWAP2 POP PUSH2 0xDF1 DUP4 PUSH2 0x724 JUMP JUMPDEST SWAP3 POP DUP3 DUP3 MUL PUSH2 0xDFF DUP2 PUSH2 0x724 JUMP JUMPDEST SWAP2 POP DUP3 DUP3 DIV DUP5 EQ DUP4 ISZERO OR PUSH2 0xE16 JUMPI PUSH2 0xE15 PUSH2 0xC2A JUMP JUMPDEST JUMPDEST POP SWAP3 SWAP2 POP POP JUMP JUMPDEST PUSH0 DUP2 SWAP1 POP SWAP2 SWAP1 POP JUMP JUMPDEST PUSH2 0xE2F DUP2 PUSH2 0xE1D JUMP JUMPDEST DUP3 MSTORE POP POP JUMP JUMPDEST PUSH2 0xE3E DUP2 PUSH2 0x724 JUMP JUMPDEST DUP3 MSTORE POP POP JUMP JUMPDEST PUSH0 PUSH1 0xA0 DUP3 ADD SWAP1 POP PUSH2 0xE57 PUSH0 DUP4 ADD DUP9 PUSH2 0xE26 JUMP JUMPDEST PUSH2 0xE64 PUSH1 0x20 DUP4 ADD DUP8 PUSH2 0xE26 JUMP JUMPDEST PUSH2 0xE71 PUSH1 0x40 DUP4 ADD DUP7 PUSH2 0xE26 JUMP JUMPDEST PUSH2 0xE7E PUSH1 0x60 DUP4 ADD DUP6 PUSH2 0xE35 JUMP JUMPDEST PUSH2 0xE8B PUSH1 0x80 DUP4 ADD DUP5 PUSH2 0xC02 JUMP JUMPDEST SWAP7 SWAP6 POP POP POP POP POP POP JUMP JUMPDEST PUSH0 DUP3 DUP3 MSTORE PUSH1 0x20 DUP3 ADD SWAP1 POP SWAP3 SWAP2 POP POP JUMP JUMPDEST PUSH0 PUSH2 0xEAF DUP3 PUSH2 0x92F JUMP JUMPDEST PUSH2 0xEB9 DUP2 DUP6 PUSH2 0xE95 JUMP JUMPDEST SWAP4 POP PUSH2 0xEC9 DUP2 DUP6 PUSH1 0x20 DUP7 ADD PUSH2 0x817 JUMP JUMPDEST PUSH2 0xED2 DUP2 PUSH2 0x75F JUMP JUMPDEST DUP5 ADD SWAP2 POP POP SWAP3 SWAP2 POP POP JUMP JUMPDEST PUSH0 PUSH1 0x20 DUP3 ADD SWAP1 POP DUP2 DUP2 SUB PUSH0 DUP4 ADD MSTORE PUSH2 0xEF5 DUP2 DUP5 PUSH2 0xEA5 JUMP JUMPDEST SWAP1 POP SWAP3 SWAP2 POP POP JUMP JUMPDEST PUSH0 DUP2 MLOAD SWAP1 POP SWAP2 SWAP1 POP JUMP JUMPDEST PUSH0 DUP2 SWAP1 POP PUSH1 0x20 DUP3 ADD SWAP1 POP SWAP2 SWAP1 POP JUMP JUMPDEST PUSH0 PUSH2 0xF21 DUP3 MLOAD PUSH2 0xE1D JUMP JUMPDEST DUP1 SWAP2 POP POP SWAP2 SWAP1 POP JUMP JUMPDEST PUSH0 PUSH2 0xF34 DUP3 PUSH2 0xEFD JUMP JUMPDEST DUP3 PUSH2 0xF3E DUP5 PUSH2 0xF07 JUMP JUMPDEST SWAP1 POP PUSH2 0xF49 DUP2 PUSH2 0xF16 JUMP JUMPDEST SWAP3 POP PUSH1 0x20 DUP3 LT ISZERO PUSH2 0xF89 JUMPI PUSH2 0xF84 PUSH32 0xFFFFFFFFFFFFFFFFFFFFFFFFFFFFFFFFFFFFFFFFFFFFFFFFFFFFFFFFFFFFFFFF DUP4 PUSH1 0x20 SUB PUSH1 0x8 MUL PUSH2 0x9B7 JUMP JUMPDEST DUP4 AND SWAP3 POP JUMPDEST POP POP SWAP2 SWAP1 POP JUMP JUMPDEST PUSH0 PUSH2 0xF9A DUP3 PUSH2 0x724 JUMP JUMPDEST SWAP2 POP PUSH2 0xFA5 DUP4 PUSH2 0x724 JUMP JUMPDEST SWAP3 POP DUP3 DUP3 ADD SWAP1 POP DUP1 DUP3 GT ISZERO PUSH2 0xFBD JUMPI PUSH2 0xFBC PUSH2 0xC2A JUMP JUMPDEST JUMPDEST SWAP3 SWAP2 POP POP JUMP JUMPDEST PUSH0 PUSH1 0x60 DUP3 ADD SWAP1 POP PUSH2 0xFD6 PUSH0 DUP4 ADD DUP7 PUSH2 0xC02 JUMP JUMPDEST PUSH2 0xFE3 PUSH1 0x20 DUP4 ADD DUP6 PUSH2 0xE35 JUMP JUMPDEST PUSH2 0xFF0 PUSH1 0x40 DUP4 ADD DUP5 PUSH2 0xE35 JUMP JUMPDEST SWAP5 SWAP4 POP POP POP POP JUMP JUMPDEST PUSH0 PUSH1 0x20 DUP3 ADD SWAP1 POP PUSH2 0x100B PUSH0 DUP4 ADD DUP5 PUSH2 0xE35 JUMP JUMPDEST SWAP3 SWAP2 POP POP JUMP JUMPDEST PUSH1 0x80 MLOAD PUSH1 0xA0 MLOAD PUSH1 0xC0 MLOAD PUSH1 0xE0 MLOAD PUSH2 0x100 MLOAD PUSH2 0x120 MLOAD PUSH2 0x140 MLOAD PUSH2 0x1E8E PUSH2 0x1062 PUSH0 CODECOPY PUSH0 PUSH2 0xD4F ADD MSTORE PUSH0 PUSH2 0xD14 ADD MSTORE PUSH0 PUSH2 0x1248 ADD MSTORE PUSH0 PUSH2 0x1227 ADD MSTORE PUSH0 PUSH2 0xA49 ADD MSTORE PUSH0 PUSH2 0xA9F ADD MSTORE PUSH0 PUSH2 0xAC8 ADD MSTORE PUSH2 0x1E8E PUSH0 RETURN INVALID PUSH1 0x80 PUSH1 0x40 MSTORE CALLVALUE DUP1 ISZERO PUSH2 0xF JUMPI PUSH0 DUP1 REVERT JUMPDEST POP PUSH1 0x4 CALLDATASIZE LT PUSH2 0x109 JUMPI PUSH0 CALLDATALOAD PUSH1 0xE0 SHR DUP1 PUSH4 0x715018A6 GT PUSH2 0xA0 JUMPI DUP1 PUSH4 0x95D89B41 GT PUSH2 0x6F JUMPI DUP1 PUSH4 0x95D89B41 EQ PUSH2 0x2AD JUMPI DUP1 PUSH4 0xA9059CBB EQ PUSH2 0x2CB JUMPI DUP1 PUSH4 0xD505ACCF EQ PUSH2 0x2FB JUMPI DUP1 PUSH4 0xDD62ED3E EQ PUSH2 0x317 JUMPI DUP1 PUSH4 0xF2FDE38B EQ PUSH2 0x347 JUMPI PUSH2 0x109 JUMP JUMPDEST DUP1 PUSH4 0x715018A6 EQ PUSH2 0x231 JUMPI DUP1 PUSH4 0x7ECEBE00 EQ PUSH2 0x23B JUMPI DUP1 PUSH4 0x84B0196E EQ PUSH2 0x26B JUMPI DUP1 PUSH4 0x8DA5CB5B EQ PUSH2 0x28F JUMPI PUSH2 0x109 JUMP JUMPDEST DUP1 PUSH4 0x313CE567 GT PUSH2 0xDC JUMPI DUP1 PUSH4 0x313CE567 EQ PUSH2 0x1A9 JUMPI DUP1 PUSH4 0x3644E515 EQ PUSH2 0x1C7 JUMPI DUP1 PUSH4 0x40C10F19 EQ PUSH2 0x1E5 JUMPI DUP1 PUSH4 0x70A08231 EQ PUSH2 0x201 JUMPI PUSH2 0x109 JUMP JUMPDEST DUP1 PUSH4 0x6FDDE03 EQ PUSH2 0x10D JUMPI DUP1 PUSH4 0x95EA7B3 EQ PUSH2 0x12B JUMPI DUP1 PUSH4 0x18160DDD EQ PUSH2 0x15B JUMPI DUP1 PUSH4 0x23B872DD EQ PUSH2 0x179 JUMPI JUMPDEST PUSH0 DUP1 REVERT JUMPDEST PUSH2 0x115 PUSH2 0x363 JUMP JUMPDEST PUSH1 0x40 MLOAD PUSH2 0x122 SWAP2 SWAP1 PUSH2 0x16FE JUMP JUMPDEST PUSH1 0x40 MLOAD DUP1 SWAP2 SUB SWAP1 RETURN JUMPDEST PUSH2 0x145 PUSH1 0x4 DUP1 CALLDATASIZE SUB DUP2 ADD SWAP1 PUSH2 0x140 SWAP2 SWAP1 PUSH2 0x17AF JUMP JUMPDEST PUSH2 0x3F3 JUMP JUMPDEST PUSH1 0x40 MLOAD PUSH2 0x152 SWAP2 SWAP1 PUSH2 0x1807 JUMP JUMPDEST PUSH1 0x40 MLOAD DUP1 SWAP2 SUB SWAP1 RETURN JUMPDEST PUSH2 0x163 PUSH2 0x415 JUMP JUMPDEST PUSH1 0x40 MLOAD PUSH2 0x170 SWAP2 SWAP1 PUSH2 0x182F JUMP JUMPDEST PUSH1 0x40 MLOAD DUP1 SWAP2 SUB SWAP1 RETURN JUMPDEST PUSH2 0x193 PUSH1 0x4 DUP1 CALLDATASIZE SUB DUP2 ADD SWAP1 PUSH2 0x18E SWAP2 SWAP1 PUSH2 0x1848 JUMP JUMPDEST PUSH2 0x41E JUMP JUMPDEST PUSH1 0x40 MLOAD PUSH2 0x1A0 SWAP2 SWAP1 PUSH2 0x1807 JUMP JUMPDEST PUSH1 0x40 MLOAD DUP1 SWAP2 SUB SWAP1 RETURN JUMPDEST PUSH2 0x1B1 PUSH2 0x44C JUMP JUMPDEST PUSH1 0x40 MLOAD PUSH2 0x1BE SWAP2 SWAP1 PUSH2 0x18B3 JUMP JUMPDEST PUSH1 0x40 MLOAD DUP1 SWAP2 SUB SWAP1 RETURN JUMPDEST PUSH2 0x1CF PUSH2 0x454 JUMP JUMPDEST PUSH1 0x40 MLOAD PUSH2 0x1DC SWAP2 SWAP1 PUSH2 0x18E4 JUMP JUMPDEST PUSH1 0x40 MLOAD DUP1 SWAP2 SUB SWAP1 RETURN JUMPDEST PUSH2 0x1FF PUSH1 0x4 DUP1 CALLDATASIZE SUB DUP2 ADD SWAP1 PUSH2 0x1FA SWAP2 SWAP1 PUSH2 0x17AF JUMP JUMPDEST PUSH2 0x462 JUMP JUMPDEST STOP JUMPDEST PUSH2 0x21B PUSH1 0x4 DUP1 CALLDATASIZE SUB DUP2 ADD SWAP1 PUSH2 0x216 SWAP2 SWAP1 PUSH2 0x18FD JUMP JUMPDEST PUSH2 0x478 JUMP JUMPDEST PUSH1 0x40 MLOAD PUSH2 0x228 SWAP2 SWAP1 PUSH2 0x182F JUMP JUMPDEST PUSH1 0x40 MLOAD DUP1 SWAP2 SUB SWAP1 RETURN JUMPDEST PUSH2 0x239 PUSH2 0x4BD JUMP JUMPDEST STOP JUMPDEST PUSH2 0x255 PUSH1 0x4 DUP1 CALLDATASIZE SUB DUP2 ADD SWAP1 PUSH2 0x250 SWAP2 SWAP1 PUSH2 0x18FD JUMP JUMPDEST PUSH2 0x4D0 JUMP JUMPDEST PUSH1 0x40 MLOAD PUSH2 0x262 SWAP2 SWAP1 PUSH2 0x182F JUMP JUMPDEST PUSH1 0x40 MLOAD DUP1 SWAP2 SUB SWAP1 RETURN JUMPDEST PUSH2 0x273 PUSH2 0x4E1 JUMP JUMPDEST PUSH1 0x40 MLOAD PUSH2 0x286 SWAP8 SWAP7 SWAP6 SWAP5 SWAP4 SWAP3 SWAP2 SWAP1 PUSH2 0x1A28 JUMP JUMPDEST PUSH1 0x40 MLOAD DUP1 SWAP2 SUB SWAP1 RETURN JUMPDEST PUSH2 0x297 PUSH2 0x586 JUMP JUMPDEST PUSH1 0x40 MLOAD PUSH2 0x2A4 SWAP2 SWAP1 PUSH2 0x1AAA JUMP JUMPDEST PUSH1 0x40 MLOAD DUP1 SWAP2 SUB SWAP1 RETURN JUMPDEST PUSH2 0x2B5 PUSH2 0x5AE JUMP JUMPDEST PUSH1 0x40 MLOAD PUSH2 0x2C2 SWAP2 SWAP1 PUSH2 0x16FE JUMP JUMPDEST PUSH1 0x40 MLOAD DUP1 SWAP2 SUB SWAP1 RETURN JUMPDEST PUSH2 0x2E5 PUSH1 0x4 DUP1 CALLDATASIZE SUB DUP2 ADD SWAP1 PUSH2 0x2E0 SWAP2 SWAP1 PUSH2 0x17AF JUMP JUMPDEST PUSH2 0x63E JUMP JUMPDEST PUSH1 0x40 MLOAD PUSH2 0x2F2 SWAP2 SWAP1 PUSH2 0x1807 JUMP JUMPDEST PUSH1 0x40 MLOAD DUP1 SWAP2 SUB SWAP1 RETURN JUMPDEST PUSH2 0x315 PUSH1 0x4 DUP1 CALLDATASIZE SUB DUP2 ADD SWAP1 PUSH2 0x310 SWAP2 SWAP1 PUSH2 0x1B17 JUMP JUMPDEST PUSH2 0x660 JUMP JUMPDEST STOP JUMPDEST PUSH2 0x331 PUSH1 0x4 DUP1 CALLDATASIZE SUB DUP2 ADD SWAP1 PUSH2 0x32C SWAP2 SWAP1 PUSH2 0x1BB4 JUMP JUMPDEST PUSH2 0x7A5 JUMP JUMPDEST PUSH1 0x40 MLOAD PUSH2 0x33E SWAP2 SWAP1 PUSH2 0x182F JUMP JUMPDEST PUSH1 0x40 MLOAD DUP1 SWAP2 SUB SWAP1 RETURN JUMPDEST PUSH2 0x361 PUSH1 0x4 DUP1 CALLDATASIZE SUB DUP2 ADD SWAP1 PUSH2 0x35C SWAP2 SWAP1 PUSH2 0x18FD JUMP JUMPDEST PUSH2 0x827 JUMP JUMPDEST STOP JUMPDEST PUSH1 0x60 PUSH1 0x3 DUP1 SLOAD PUSH2 0x372 SWAP1 PUSH2 0x1C1F JUMP JUMPDEST DUP1 PUSH1 0x1F ADD PUSH1 0x20 DUP1 SWAP2 DIV MUL PUSH1 0x20 ADD PUSH1 0x40 MLOAD SWAP1 DUP2 ADD PUSH1 0x40 MSTORE DUP1 SWAP3 SWAP2 SWAP1 DUP2 DUP2 MSTORE PUSH1 0x20 ADD DUP3 DUP1 SLOAD PUSH2 0x39E SWAP1 PUSH2 0x1C1F JUMP JUMPDEST DUP1 ISZERO PUSH2 0x3E9 JUMPI DUP1 PUSH1 0x1F LT PUSH2 0x3C0 JUMPI PUSH2 0x100 DUP1 DUP4 SLOAD DIV MUL DUP4 MSTORE SWAP2 PUSH1 0x20 ADD SWAP2 PUSH2 0x3E9 JUMP JUMPDEST DUP3 ADD SWAP2 SWAP1 PUSH0 MSTORE PUSH1 0x20 PUSH0 KECCAK256 SWAP1 JUMPDEST DUP2 SLOAD DUP2 MSTORE SWAP1 PUSH1 0x1 ADD SWAP1 PUSH1 0x20 ADD DUP1 DUP4 GT PUSH2 0x3CC JUMPI DUP3 SWAP1 SUB PUSH1 0x1F AND DUP3 ADD SWAP2 JUMPDEST POP POP POP POP POP SWAP1 POP SWAP1 JUMP JUMPDEST PUSH0 DUP1 PUSH2 0x3FD PUSH2 0x8AB JUMP JUMPDEST SWAP1 POP PUSH2 0x40A DUP2 DUP6 DUP6 PUSH2 0x8B2 JUMP JUMPDEST PUSH1 0x1 SWAP2 POP POP SWAP3 SWAP2 POP POP JUMP JUMPDEST PUSH0 PUSH1 0x2 SLOAD SWAP1 POP SWAP1 JUMP JUMPDEST PUSH0 DUP1 PUSH2 0x428 PUSH2 0x8AB JUMP JUMPDEST SWAP1 POP PUSH2 0x435 DUP6 DUP3 DUP6 PUSH2 0x8C4 JUMP JUMPDEST PUSH2 0x440 DUP6 DUP6 DUP6 PUSH2 0x956 JUMP JUMPDEST PUSH1 0x1 SWAP2 POP POP SWAP4 SWAP3 POP POP POP JUMP JUMPDEST PUSH0 PUSH1 0x12 SWAP1 POP SWAP1 JUMP JUMPDEST PUSH0 PUSH2 0x45D PUSH2 0xA46 JUMP JUMPDEST SWAP1 POP SWAP1 JUMP JUMPDEST PUSH2 0x46A PUSH2 0xAFC JUMP JUMPDEST PUSH2 0x474 DUP3 DUP3 PUSH2 0xB83 JUMP JUMPDEST POP POP JUMP JUMPDEST PUSH0 DUP1 PUSH0 DUP4 PUSH20 0xFFFFFFFFFFFFFFFFFFFFFFFFFFFFFFFFFFFFFFFF AND PUSH20 0xFFFFFFFFFFFFFFFFFFFFFFFFFFFFFFFFFFFFFFFF AND DUP2 MSTORE PUSH1 0x20 ADD SWAP1 DUP2 MSTORE PUSH1 0x20 ADD PUSH0 KECCAK256 SLOAD SWAP1 POP SWAP2 SWAP1 POP JUMP JUMPDEST PUSH2 0x4C5 PUSH2 0xAFC JUMP JUMPDEST PUSH2 0x4CE PUSH0 PUSH2 0xC02 JUMP JUMPDEST JUMP JUMPDEST PUSH0 PUSH2 0x4DA DUP3 PUSH2 0xCC5 JUMP JUMPDEST SWAP1 POP SWAP2 SWAP1 POP JUMP JUMPDEST PUSH0 PUSH1 0x60 DUP1 PUSH0 DUP1 PUSH0 PUSH1 0x60 PUSH2 0x4F2 PUSH2 0xD0B JUMP JUMPDEST PUSH2 0x4FA PUSH2 0xD46 JUMP JUMPDEST CHAINID ADDRESS PUSH0 DUP1 SHL PUSH0 PUSH8 0xFFFFFFFFFFFFFFFF DUP2 GT ISZERO PUSH2 0x519 JUMPI PUSH2 0x518 PUSH2 0x1C4F JUMP JUMPDEST JUMPDEST PUSH1 0x40 MLOAD SWAP1 DUP1 DUP3 MSTORE DUP1 PUSH1 0x20 MUL PUSH1 0x20 ADD DUP3 ADD PUSH1 0x40 MSTORE DUP1 ISZERO PUSH2 0x547 JUMPI DUP2 PUSH1 0x20 ADD PUSH1 0x20 DUP3 MUL DUP1 CALLDATASIZE DUP4 CALLDATACOPY DUP1 DUP3 ADD SWAP2 POP POP SWAP1 POP JUMPDEST POP PUSH32 0xF00000000000000000000000000000000000000000000000000000000000000 SWAP6 SWAP5 SWAP4 SWAP3 SWAP2 SWAP1 SWAP7 POP SWAP7 POP SWAP7 POP SWAP7 POP SWAP7 POP SWAP7 POP SWAP7 POP SWAP1 SWAP2 SWAP3 SWAP4 SWAP5 SWAP6 SWAP7 JUMP JUMPDEST PUSH0 PUSH1 0x5 PUSH0 SWAP1 SLOAD SWAP1 PUSH2 0x100 EXP SWAP1 DIV PUSH20 0xFFFFFFFFFFFFFFFFFFFFFFFFFFFFFFFFFFFFFFFF AND SWAP1 POP SWAP1 JUMP JUMPDEST PUSH1 0x60 PUSH1 0x4 DUP1 SLOAD PUSH2 0x5BD SWAP1 PUSH2 0x1C1F JUMP JUMPDEST DUP1 PUSH1 0x1F ADD PUSH1 0x20 DUP1 SWAP2 DIV MUL PUSH1 0x20 ADD PUSH1 0x40 MLOAD SWAP1 DUP2 ADD PUSH1 0x40 MSTORE DUP1 SWAP3 SWAP2 SWAP1 DUP2 DUP2 MSTORE PUSH1 0x20 ADD DUP3 DUP1 SLOAD PUSH2 0x5E9 SWAP1 PUSH2 0x1C1F JUMP JUMPDEST DUP1 ISZERO PUSH2 0x634 JUMPI DUP1 PUSH1 0x1F LT PUSH2 0x60B JUMPI PUSH2 0x100 DUP1 DUP4 SLOAD DIV MUL DUP4 MSTORE SWAP2 PUSH1 0x20 ADD SWAP2 PUSH2 0x634 JUMP JUMPDEST DUP3 ADD SWAP2 SWAP1 PUSH0 MSTORE PUSH1 0x20 PUSH0 KECCAK256 SWAP1 JUMPDEST DUP2 SLOAD DUP2 MSTORE SWAP1 PUSH1 0x1 ADD SWAP1 PUSH1 0x20 ADD DUP1 DUP4 GT PUSH2 0x617 JUMPI DUP3 SWAP1 SUB PUSH1 0x1F AND DUP3 ADD SWAP2 JUMPDEST POP POP POP POP POP SWAP1 POP SWAP1 JUMP JUMPDEST PUSH0 DUP1 PUSH2 0x648 PUSH2 0x8AB JUMP JUMPDEST SWAP1 POP PUSH2 0x655 DUP2 DUP6 DUP6 PUSH2 0x956 JUMP JUMPDEST PUSH1 0x1 SWAP2 POP POP SWAP3 SWAP2 POP POP JUMP JUMPDEST DUP4 TIMESTAMP GT ISZERO PUSH2 0x6A5 JUMPI DUP4 PUSH1 0x40 MLOAD PUSH32 0x6279130200000000000000000000000000000000000000000000000000000000 DUP2 MSTORE PUSH1 0x4 ADD PUSH2 0x69C SWAP2 SWAP1 PUSH2 0x182F JUMP JUMPDEST PUSH1 0x40 MLOAD DUP1 SWAP2 SUB SWAP1 REVERT JUMPDEST PUSH0 PUSH32 0x6E71EDAE12B1B97F4D1F60370FEF10105FA2FAAE0126114A169C64845D6126C9 DUP9 DUP9 DUP9 PUSH2 0x6D3 DUP13 PUSH2 0xD81 JUMP JUMPDEST DUP10 PUSH1 0x40 MLOAD PUSH1 0x20 ADD PUSH2 0x6E9 SWAP7 SWAP6 SWAP5 SWAP4 SWAP3 SWAP2 SWAP1 PUSH2 0x1C7C JUMP JUMPDEST PUSH1 0x40 MLOAD PUSH1 0x20 DUP2 DUP4 SUB SUB DUP2 MSTORE SWAP1 PUSH1 0x40 MSTORE DUP1 MLOAD SWAP1 PUSH1 0x20 ADD KECCAK256 SWAP1 POP PUSH0 PUSH2 0x70B DUP3 PUSH2 0xDD4 JUMP JUMPDEST SWAP1 POP PUSH0 PUSH2 0x71A DUP3 DUP8 DUP8 DUP8 PUSH2 0xDED JUMP JUMPDEST SWAP1 POP DUP10 PUSH20 0xFFFFFFFFFFFFFFFFFFFFFFFFFFFFFFFFFFFFFFFF AND DUP2 PUSH20 0xFFFFFFFFFFFFFFFFFFFFFFFFFFFFFFFFFFFFFFFF AND EQ PUSH2 0x78E JUMPI DUP1 DUP11 PUSH1 0x40 MLOAD PUSH32 0x4B800E4600000000000000000000000000000000000000000000000000000000 DUP2 MSTORE PUSH1 0x4 ADD PUSH2 0x785 SWAP3 SWAP2 SWAP1 PUSH2 0x1CDB JUMP JUMPDEST PUSH1 0x40 MLOAD DUP1 SWAP2 SUB SWAP1 REVERT JUMPDEST PUSH2 0x799 DUP11 DUP11 DUP11 PUSH2 0x8B2 JUMP JUMPDEST POP POP POP POP POP POP POP POP POP POP JUMP JUMPDEST PUSH0 PUSH1 0x1 PUSH0 DUP5 PUSH20 0xFFFFFFFFFFFFFFFFFFFFFFFFFFFFFFFFFFFFFFFF AND PUSH20 0xFFFFFFFFFFFFFFFFFFFFFFFFFFFFFFFFFFFFFFFF AND DUP2 MSTORE PUSH1 0x20 ADD SWAP1 DUP2 MSTORE PUSH1 0x20 ADD PUSH0 KECCAK256 PUSH0 DUP4 PUSH20 0xFFFFFFFFFFFFFFFFFFFFFFFFFFFFFFFFFFFFFFFF AND PUSH20 0xFFFFFFFFFFFFFFFFFFFFFFFFFFFFFFFFFFFFFFFF AND DUP2 MSTORE PUSH1 0x20 ADD SWAP1 DUP2 MSTORE PUSH1 0x20 ADD PUSH0 KECCAK256 SLOAD SWAP1 POP SWAP3 SWAP2 POP POP JUMP JUMPDEST PUSH2 0x82F PUSH2 0xAFC JUMP JUMPDEST PUSH0 PUSH20 0xFFFFFFFFFFFFFFFFFFFFFFFFFFFFFFFFFFFFFFFF AND DUP2 PUSH20 0xFFFFFFFFFFFFFFFFFFFFFFFFFFFFFFFFFFFFFFFF AND SUB PUSH2 0x89F JUMPI PUSH0 PUSH1 0x40 MLOAD PUSH32 0x1E4FBDF700000000000000000000000000000000000000000000000000000000 DUP2 MSTORE PUSH1 0x4 ADD PUSH2 0x896 SWAP2 SWAP1 PUSH2 0x1AAA JUMP JUMPDEST PUSH1 0x40 MLOAD DUP1 SWAP2 SUB SWAP1 REVERT JUMPDEST PUSH2 0x8A8 DUP2 PUSH2 0xC02 JUMP JUMPDEST POP JUMP JUMPDEST PUSH0 CALLER SWAP1 POP SWAP1 JUMP JUMPDEST PUSH2 0x8BF DUP4 DUP4 DUP4 PUSH1 0x1 PUSH2 0xE1B JUMP JUMPDEST POP POP POP JUMP JUMPDEST PUSH0 PUSH2 0x8CF DUP5 DUP5 PUSH2 0x7A5 JUMP JUMPDEST SWAP1 POP PUSH32 0xFFFFFFFFFFFFFFFFFFFFFFFFFFFFFFFFFFFFFFFFFFFFFFFFFFFFFFFFFFFFFFFF DUP2 EQ PUSH2 0x950 JUMPI DUP2 DUP2 LT ISZERO PUSH2 0x941 JUMPI DUP3 DUP2 DUP4 PUSH1 0x40 MLOAD PUSH32 0xFB8F41B200000000000000000000000000000000000000000000000000000000 DUP2 MSTORE PUSH1 0x4 ADD PUSH2 0x938 SWAP4 SWAP3 SWAP2 SWAP1 PUSH2 0x1D02 JUMP JUMPDEST PUSH1 0x40 MLOAD DUP1 SWAP2 SUB SWAP1 REVERT JUMPDEST PUSH2 0x94F DUP5 DUP5 DUP5 DUP5 SUB PUSH0 PUSH2 0xE1B JUMP JUMPDEST JUMPDEST POP POP POP POP JUMP JUMPDEST PUSH0 PUSH20 0xFFFFFFFFFFFFFFFFFFFFFFFFFFFFFFFFFFFFFFFF AND DUP4 PUSH20 0xFFFFFFFFFFFFFFFFFFFFFFFFFFFFFFFFFFFFFFFF AND SUB PUSH2 0x9C6 JUMPI PUSH0 PUSH1 0x40 MLOAD PUSH32 0x96C6FD1E00000000000000000000000000000000000000000000000000000000 DUP2 MSTORE PUSH1 0x4 ADD PUSH2 0x9BD SWAP2 SWAP1 PUSH2 0x1AAA JUMP JUMPDEST PUSH1 0x40 MLOAD DUP1 SWAP2 SUB SWAP1 REVERT JUMPDEST PUSH0 PUSH20 0xFFFFFFFFFFFFFFFFFFFFFFFFFFFFFFFFFFFFFFFF AND DUP3 PUSH20 0xFFFFFFFFFFFFFFFFFFFFFFFFFFFFFFFFFFFFFFFF AND SUB PUSH2 0xA36 JUMPI PUSH0 PUSH1 0x40 MLOAD PUSH32 0xEC442F0500000000000000000000000000000000000000000000000000000000 DUP2 MSTORE PUSH1 0x4 ADD PUSH2 0xA2D SWAP2 SWAP1 PUSH2 0x1AAA JUMP JUMPDEST PUSH1 0x40 MLOAD DUP1 SWAP2 SUB SWAP1 REVERT JUMPDEST PUSH2 0xA41 DUP4 DUP4 DUP4 PUSH2 0xFEA JUMP JUMPDEST POP POP POP JUMP JUMPDEST PUSH0 PUSH32 0x0 PUSH20 0xFFFFFFFFFFFFFFFFFFFFFFFFFFFFFFFFFFFFFFFF AND ADDRESS PUSH20 0xFFFFFFFFFFFFFFFFFFFFFFFFFFFFFFFFFFFFFFFF AND EQ DUP1 ISZERO PUSH2 0xAC1 JUMPI POP PUSH32 0x0 CHAINID EQ JUMPDEST ISZERO PUSH2 0xAEE JUMPI PUSH32 0x0 SWAP1 POP PUSH2 0xAF9 JUMP JUMPDEST PUSH2 0xAF6 PUSH2 0x1203 JUMP JUMPDEST SWAP1 POP JUMPDEST SWAP1 JUMP JUMPDEST PUSH2 0xB04 PUSH2 0x8AB JUMP JUMPDEST PUSH20 0xFFFFFFFFFFFFFFFFFFFFFFFFFFFFFFFFFFFFFFFF AND PUSH2 0xB22 PUSH2 0x586 JUMP JUMPDEST PUSH20 0xFFFFFFFFFFFFFFFFFFFFFFFFFFFFFFFFFFFFFFFF AND EQ PUSH2 0xB81 JUMPI PUSH2 0xB45 PUSH2 0x8AB JUMP JUMPDEST PUSH1 0x40 MLOAD PUSH32 0x118CDAA700000000000000000000000000000000000000000000000000000000 DUP2 MSTORE PUSH1 0x4 ADD PUSH2 0xB78 SWAP2 SWAP1 PUSH2 0x1AAA JUMP JUMPDEST PUSH1 0x40 MLOAD DUP1 SWAP2 SUB SWAP1 REVERT JUMPDEST JUMP JUMPDEST PUSH0 PUSH20 0xFFFFFFFFFFFFFFFFFFFFFFFFFFFFFFFFFFFFFFFF AND DUP3 PUSH20 0xFFFFFFFFFFFFFFFFFFFFFFFFFFFFFFFFFFFFFFFF AND SUB PUSH2 0xBF3 JUMPI PUSH0 PUSH1 0x40 MLOAD PUSH32 0xEC442F0500000000000000000000000000000000000000000000000000000000 DUP2 MSTORE PUSH1 0x4 ADD PUSH2 0xBEA SWAP2 SWAP1 PUSH2 0x1AAA JUMP JUMPDEST PUSH1 0x40 MLOAD DUP1 SWAP2 SUB SWAP1 REVERT JUMPDEST PUSH2 0xBFE PUSH0 DUP4 DUP4 PUSH2 0xFEA JUMP JUMPDEST POP POP JUMP JUMPDEST PUSH0 PUSH1 0x5 PUSH0 SWAP1 SLOAD SWAP1 PUSH2 0x100 EXP SWAP1 DIV PUSH20 0xFFFFFFFFFFFFFFFFFFFFFFFFFFFFFFFFFFFFFFFF AND SWAP1 POP DUP2 PUSH1 0x5 PUSH0 PUSH2 0x100 EXP DUP2 SLOAD DUP2 PUSH20 0xFFFFFFFFFFFFFFFFFFFFFFFFFFFFFFFFFFFFFFFF MUL NOT AND SWAP1 DUP4 PUSH20 0xFFFFFFFFFFFFFFFFFFFFFFFFFFFFFFFFFFFFFFFF AND MUL OR SWAP1 SSTORE POP DUP2 PUSH20 0xFFFFFFFFFFFFFFFFFFFFFFFFFFFFFFFFFFFFFFFF AND DUP2 PUSH20 0xFFFFFFFFFFFFFFFFFFFFFFFFFFFFFFFFFFFFFFFF AND PUSH32 0x8BE0079C531659141344CD1FD0A4F28419497F9722A3DAAFE3B4186F6B6457E0 PUSH1 0x40 MLOAD PUSH1 0x40 MLOAD DUP1 SWAP2 SUB SWAP1 LOG3 POP POP JUMP JUMPDEST PUSH0 PUSH1 0x8 PUSH0 DUP4 PUSH20 0xFFFFFFFFFFFFFFFFFFFFFFFFFFFFFFFFFFFFFFFF AND PUSH20 0xFFFFFFFFFFFFFFFFFFFFFFFFFFFFFFFFFFFFFFFF AND DUP2 MSTORE PUSH1 0x20 ADD SWAP1 DUP2 MSTORE PUSH1 0x20 ADD PUSH0 KECCAK256 SLOAD SWAP1 POP SWAP2 SWAP1 POP JUMP JUMPDEST PUSH1 0x60 PUSH2 0xD41 PUSH1 0x6 PUSH32 0x0 PUSH2 0x1298 SWAP1 SWAP2 SWAP1 PUSH4 0xFFFFFFFF AND JUMP JUMPDEST SWAP1 POP SWAP1 JUMP JUMPDEST PUSH1 0x60 PUSH2 0xD7C PUSH1 0x7 PUSH32 0x0 PUSH2 0x1298 SWAP1 SWAP2 SWAP1 PUSH4 0xFFFFFFFF AND JUMP JUMPDEST SWAP1 POP SWAP1 JUMP JUMPDEST PUSH0 PUSH1 0x8 PUSH0 DUP4 PUSH20 0xFFFFFFFFFFFFFFFFFFFFFFFFFFFFFFFFFFFFFFFF AND PUSH20 0xFFFFFFFFFFFFFFFFFFFFFFFFFFFFFFFFFFFFFFFF AND DUP2 MSTORE PUSH1 0x20 ADD SWAP1 DUP2 MSTORE PUSH1 0x20 ADD PUSH0 KECCAK256 PUSH0 DUP2 SLOAD DUP1 SWAP3 SWAP2 SWAP1 PUSH1 0x1 ADD SWAP2 SWAP1 POP SSTORE SWAP1 POP SWAP2 SWAP1 POP JUMP JUMPDEST PUSH0 PUSH2 0xDE6 PUSH2 0xDE0 PUSH2 0xA46 JUMP JUMPDEST DUP4 PUSH2 0x1345 JUMP JUMPDEST SWAP1 POP SWAP2 SWAP1 POP JUMP JUMPDEST PUSH0 DUP1 PUSH0 DUP1 PUSH2 0xDFD DUP9 DUP9 DUP9 DUP9 PUSH2 0x1385 JUMP JUMPDEST SWAP3 POP SWAP3 POP SWAP3 POP PUSH2 0xE0D DUP3 DUP3 PUSH2 0x146C JUMP JUMPDEST DUP3 SWAP4 POP POP POP POP SWAP5 SWAP4 POP POP POP POP JUMP JUMPDEST PUSH0 PUSH20 0xFFFFFFFFFFFFFFFFFFFFFFFFFFFFFFFFFFFFFFFF AND DUP5 PUSH20 0xFFFFFFFFFFFFFFFFFFFFFFFFFFFFFFFFFFFFFFFF AND SUB PUSH2 0xE8B JUMPI PUSH0 PUSH1 0x40 MLOAD PUSH32 0xE602DF0500000000000000000000000000000000000000000000000000000000 DUP2 MSTORE PUSH1 0x4 ADD PUSH2 0xE82 SWAP2 SWAP1 PUSH2 0x1AAA JUMP JUMPDEST PUSH1 0x40 MLOAD DUP1 SWAP2 SUB SWAP1 REVERT JUMPDEST PUSH0 PUSH20 0xFFFFFFFFFFFFFFFFFFFFFFFFFFFFFFFFFFFFFFFF AND DUP4 PUSH20 0xFFFFFFFFFFFFFFFFFFFFFFFFFFFFFFFFFFFFFFFF AND SUB PUSH2 0xEFB JUMPI PUSH0 PUSH1 0x40 MLOAD PUSH32 0x94280D6200000000000000000000000000000000000000000000000000000000 DUP2 MSTORE PUSH1 0x4 ADD PUSH2 0xEF2 SWAP2 SWAP1 PUSH2 0x1AAA JUMP JUMPDEST PUSH1 0x40 MLOAD DUP1 SWAP2 SUB SWAP1 REVERT JUMPDEST DUP2 PUSH1 0x1 PUSH0 DUP7 PUSH20 0xFFFFFFFFFFFFFFFFFFFFFFFFFFFFFFFFFFFFFFFF AND PUSH20 0xFFFFFFFFFFFFFFFFFFFFFFFFFFFFFFFFFFFFFFFF AND DUP2 MSTORE PUSH1 0x20 ADD SWAP1 DUP2 MSTORE PUSH1 0x20 ADD PUSH0 KECCAK256 PUSH0 DUP6 PUSH20 0xFFFFFFFFFFFFFFFFFFFFFFFFFFFFFFFFFFFFFFFF AND PUSH20 0xFFFFFFFFFFFFFFFFFFFFFFFFFFFFFFFFFFFFFFFF AND DUP2 MSTORE PUSH1 0x20 ADD SWAP1 DUP2 MSTORE PUSH1 0x20 ADD PUSH0 KECCAK256 DUP2 SWAP1 SSTORE POP DUP1 ISZERO PUSH2 0xFE4 JUMPI DUP3 PUSH20 0xFFFFFFFFFFFFFFFFFFFFFFFFFFFFFFFFFFFFFFFF AND DUP5 PUSH20 0xFFFFFFFFFFFFFFFFFFFFFFFFFFFFFFFFFFFFFFFF AND PUSH32 0x8C5BE1E5EBEC7D5BD14F71427D1E84F3DD0314C0F7B2291E5B200AC8C7C3B925 DUP5 PUSH1 0x40 MLOAD PUSH2 0xFDB SWAP2 SWAP1 PUSH2 0x182F JUMP JUMPDEST PUSH1 0x40 MLOAD DUP1 SWAP2 SUB SWAP1 LOG3 JUMPDEST POP POP POP POP JUMP JUMPDEST PUSH0 PUSH20 0xFFFFFFFFFFFFFFFFFFFFFFFFFFFFFFFFFFFFFFFF AND DUP4 PUSH20 0xFFFFFFFFFFFFFFFFFFFFFFFFFFFFFFFFFFFFFFFF AND SUB PUSH2 0x103A JUMPI DUP1 PUSH1 0x2 PUSH0 DUP3 DUP3 SLOAD PUSH2 0x102E SWAP2 SWAP1 PUSH2 0x1D64 JUMP JUMPDEST SWAP3 POP POP DUP2 SWAP1 SSTORE POP PUSH2 0x1108 JUMP JUMPDEST PUSH0 DUP1 PUSH0 DUP6 PUSH20 0xFFFFFFFFFFFFFFFFFFFFFFFFFFFFFFFFFFFFFFFF AND PUSH20 0xFFFFFFFFFFFFFFFFFFFFFFFFFFFFFFFFFFFFFFFF AND DUP2 MSTORE PUSH1 0x20 ADD SWAP1 DUP2 MSTORE PUSH1 0x20 ADD PUSH0 KECCAK256 SLOAD SWAP1 POP DUP2 DUP2 LT ISZERO PUSH2 0x10C3 JUMPI DUP4 DUP2 DUP4 PUSH1 0x40 MLOAD PUSH32 0xE450D38C00000000000000000000000000000000000000000000000000000000 DUP2 MSTORE PUSH1 0x4 ADD PUSH2 0x10BA SWAP4 SWAP3 SWAP2 SWAP1 PUSH2 0x1D02 JUMP JUMPDEST PUSH1 0x40 MLOAD DUP1 SWAP2 SUB SWAP1 REVERT JUMPDEST DUP2 DUP2 SUB PUSH0 DUP1 DUP7 PUSH20 0xFFFFFFFFFFFFFFFFFFFFFFFFFFFFFFFFFFFFFFFF AND PUSH20 0xFFFFFFFFFFFFFFFFFFFFFFFFFFFFFFFFFFFFFFFF AND DUP2 MSTORE PUSH1 0x20 ADD SWAP1 DUP2 MSTORE PUSH1 0x20 ADD PUSH0 KECCAK256 DUP2 SWAP1 SSTORE POP POP JUMPDEST PUSH0 PUSH20 0xFFFFFFFFFFFFFFFFFFFFFFFFFFFFFFFFFFFFFFFF AND DUP3 PUSH20 0xFFFFFFFFFFFFFFFFFFFFFFFFFFFFFFFFFFFFFFFF AND SUB PUSH2 0x114F JUMPI DUP1 PUSH1 0x2 PUSH0 DUP3 DUP3 SLOAD SUB SWAP3 POP POP DUP2 SWAP1 SSTORE POP PUSH2 0x1199 JUMP JUMPDEST DUP1 PUSH0 DUP1 DUP5 PUSH20 0xFFFFFFFFFFFFFFFFFFFFFFFFFFFFFFFFFFFFFFFF AND PUSH20 0xFFFFFFFFFFFFFFFFFFFFFFFFFFFFFFFFFFFFFFFF AND DUP2 MSTORE PUSH1 0x20 ADD SWAP1 DUP2 MSTORE PUSH1 0x20 ADD PUSH0 KECCAK256 PUSH0 DUP3 DUP3 SLOAD ADD SWAP3 POP POP DUP2 SWAP1 SSTORE POP JUMPDEST DUP2 PUSH20 0xFFFFFFFFFFFFFFFFFFFFFFFFFFFFFFFFFFFFFFFF AND DUP4 PUSH20 0xFFFFFFFFFFFFFFFFFFFFFFFFFFFFFFFFFFFFFFFF AND PUSH32 0xDDF252AD1BE2C89B69C2B068FC378DAA952BA7F163C4A11628F55A4DF523B3EF DUP4 PUSH1 0x40 MLOAD PUSH2 0x11F6 SWAP2 SWAP1 PUSH2 0x182F JUMP JUMPDEST PUSH1 0x40 MLOAD DUP1 SWAP2 SUB SWAP1 LOG3 POP POP POP JUMP JUMPDEST PUSH0 PUSH32 0x8B73C3C69BB8FE3D512ECC4CF759CC79239F7B179B0FFACAA9A75D522B39400F PUSH32 0x0 PUSH32 0x0 CHAINID ADDRESS PUSH1 0x40 MLOAD PUSH1 0x20 ADD PUSH2 0x127D SWAP6 SWAP5 SWAP4 SWAP3 SWAP2 SWAP1 PUSH2 0x1D97 JUMP JUMPDEST PUSH1 0x40 MLOAD PUSH1 0x20 DUP2 DUP4 SUB SUB DUP2 MSTORE SWAP1 PUSH1 0x40 MSTORE DUP1 MLOAD SWAP1 PUSH1 0x20 ADD KECCAK256 SWAP1 POP SWAP1 JUMP JUMPDEST PUSH1 0x60 PUSH1 0xFF PUSH0 SHL DUP4 EQ PUSH2 0x12B4 JUMPI PUSH2 0x12AD DUP4 PUSH2 0x15CE JUMP JUMPDEST SWAP1 POP PUSH2 0x133F JUMP JUMPDEST DUP2 DUP1 SLOAD PUSH2 0x12C0 SWAP1 PUSH2 0x1C1F JUMP JUMPDEST DUP1 PUSH1 0x1F ADD PUSH1 0x20 DUP1 SWAP2 DIV MUL PUSH1 0x20 ADD PUSH1 0x40 MLOAD SWAP1 DUP2 ADD PUSH1 0x40 MSTORE DUP1 SWAP3 SWAP2 SWAP1 DUP2 DUP2 MSTORE PUSH1 0x20 ADD DUP3 DUP1 SLOAD PUSH2 0x12EC SWAP1 PUSH2 0x1C1F JUMP JUMPDEST DUP1 ISZERO PUSH2 0x1337 JUMPI DUP1 PUSH1 0x1F LT PUSH2 0x130E JUMPI PUSH2 0x100 DUP1 DUP4 SLOAD DIV MUL DUP4 MSTORE SWAP2 PUSH1 0x20 ADD SWAP2 PUSH2 0x1337 JUMP JUMPDEST DUP3 ADD SWAP2 SWAP1 PUSH0 MSTORE PUSH1 0x20 PUSH0 KECCAK256 SWAP1 JUMPDEST DUP2 SLOAD DUP2 MSTORE SWAP1 PUSH1 0x1 ADD SWAP1 PUSH1 0x20 ADD DUP1 DUP4 GT PUSH2 0x131A JUMPI DUP3 SWAP1 SUB PUSH1 0x1F AND DUP3 ADD SWAP2 JUMPDEST POP POP POP POP POP SWAP1 POP JUMPDEST SWAP3 SWAP2 POP POP JUMP JUMPDEST PUSH0 PUSH1 0x40 MLOAD PUSH32 0x1901000000000000000000000000000000000000000000000000000000000000 DUP2 MSTORE DUP4 PUSH1 0x2 DUP3 ADD MSTORE DUP3 PUSH1 0x22 DUP3 ADD MSTORE PUSH1 0x42 DUP2 KECCAK256 SWAP2 POP POP SWAP3 SWAP2 POP POP JUMP JUMPDEST PUSH0 DUP1 PUSH0 PUSH32 0x7FFFFFFFFFFFFFFFFFFFFFFFFFFFFFFF5D576E7357A4501DDFE92F46681B20A0 DUP5 PUSH0 SHR GT ISZERO PUSH2 0x13C1 JUMPI PUSH0 PUSH1 0x3 DUP6 SWAP3 POP SWAP3 POP SWAP3 POP PUSH2 0x1462 JUMP JUMPDEST PUSH0 PUSH1 0x1 DUP9 DUP9 DUP9 DUP9 PUSH1 0x40 MLOAD PUSH0 DUP2 MSTORE PUSH1 0x20 ADD PUSH1 0x40 MSTORE PUSH1 0x40 MLOAD PUSH2 0x13E4 SWAP5 SWAP4 SWAP3 SWAP2 SWAP1 PUSH2 0x1DE8 JUMP JUMPDEST PUSH1 0x20 PUSH1 0x40 MLOAD PUSH1 0x20 DUP2 SUB SWAP1 DUP1 DUP5 SUB SWAP1 DUP6 GAS STATICCALL ISZERO DUP1 ISZERO PUSH2 0x1404 JUMPI RETURNDATASIZE PUSH0 DUP1 RETURNDATACOPY RETURNDATASIZE PUSH0 REVERT JUMPDEST POP POP POP PUSH1 0x20 PUSH1 0x40 MLOAD SUB MLOAD SWAP1 POP PUSH0 PUSH20 0xFFFFFFFFFFFFFFFFFFFFFFFFFFFFFFFFFFFFFFFF AND DUP2 PUSH20 0xFFFFFFFFFFFFFFFFFFFFFFFFFFFFFFFFFFFFFFFF AND SUB PUSH2 0x1455 JUMPI PUSH0 PUSH1 0x1 PUSH0 DUP1 SHL SWAP4 POP SWAP4 POP SWAP4 POP POP PUSH2 0x1462 JUMP JUMPDEST DUP1 PUSH0 DUP1 PUSH0 SHL SWAP4 POP SWAP4 POP SWAP4 POP POP JUMPDEST SWAP5 POP SWAP5 POP SWAP5 SWAP2 POP POP JUMP JUMPDEST PUSH0 PUSH1 0x3 DUP2 GT ISZERO PUSH2 0x147F JUMPI PUSH2 0x147E PUSH2 0x1E2B JUMP JUMPDEST JUMPDEST DUP3 PUSH1 0x3 DUP2 GT ISZERO PUSH2 0x1492 JUMPI PUSH2 0x1491 PUSH2 0x1E2B JUMP JUMPDEST JUMPDEST SUB ISZERO PUSH2 0x15CA JUMPI PUSH1 0x1 PUSH1 0x3 DUP2 GT ISZERO PUSH2 0x14AC JUMPI PUSH2 0x14AB PUSH2 0x1E2B JUMP JUMPDEST JUMPDEST DUP3 PUSH1 0x3 DUP2 GT ISZERO PUSH2 0x14BF JUMPI PUSH2 0x14BE PUSH2 0x1E2B JUMP JUMPDEST JUMPDEST SUB PUSH2 0x14F6 JUMPI PUSH1 0x40 MLOAD PUSH32 0xF645EEDF00000000000000000000000000000000000000000000000000000000 DUP2 MSTORE PUSH1 0x4 ADD PUSH1 0x40 MLOAD DUP1 SWAP2 SUB SWAP1 REVERT JUMPDEST PUSH1 0x2 PUSH1 0x3 DUP2 GT ISZERO PUSH2 0x150A JUMPI PUSH2 0x1509 PUSH2 0x1E2B JUMP JUMPDEST JUMPDEST DUP3 PUSH1 0x3 DUP2 GT ISZERO PUSH2 0x151D JUMPI PUSH2 0x151C PUSH2 0x1E2B JUMP JUMPDEST JUMPDEST SUB PUSH2 0x1561 JUMPI DUP1 PUSH0 SHR PUSH1 0x40 MLOAD PUSH32 0xFCE698F700000000000000000000000000000000000000000000000000000000 DUP2 MSTORE PUSH1 0x4 ADD PUSH2 0x1558 SWAP2 SWAP1 PUSH2 0x182F JUMP JUMPDEST PUSH1 0x40 MLOAD DUP1 SWAP2 SUB SWAP1 REVERT JUMPDEST PUSH1 0x3 DUP1 DUP2 GT ISZERO PUSH2 0x1574 JUMPI PUSH2 0x1573 PUSH2 0x1E2B JUMP JUMPDEST JUMPDEST DUP3 PUSH1 0x3 DUP2 GT ISZERO PUSH2 0x1587 JUMPI PUSH2 0x1586 PUSH2 0x1E2B JUMP JUMPDEST JUMPDEST SUB PUSH2 0x15C9 JUMPI DUP1 PUSH1 0x40 MLOAD PUSH32 0xD78BCE0C00000000000000000000000000000000000000000000000000000000 DUP2 MSTORE PUSH1 0x4 ADD PUSH2 0x15C0 SWAP2 SWAP1 PUSH2 0x18E4 JUMP JUMPDEST PUSH1 0x40 MLOAD DUP1 SWAP2 SUB SWAP1 REVERT JUMPDEST JUMPDEST POP POP JUMP JUMPDEST PUSH1 0x60 PUSH0 PUSH2 0x15DA DUP4 PUSH2 0x1640 JUMP JUMPDEST SWAP1 POP PUSH0 PUSH1 0x20 PUSH8 0xFFFFFFFFFFFFFFFF DUP2 GT ISZERO PUSH2 0x15F8 JUMPI PUSH2 0x15F7 PUSH2 0x1C4F JUMP JUMPDEST JUMPDEST PUSH1 0x40 MLOAD SWAP1 DUP1 DUP3 MSTORE DUP1 PUSH1 0x1F ADD PUSH1 0x1F NOT AND PUSH1 0x20 ADD DUP3 ADD PUSH1 0x40 MSTORE DUP1 ISZERO PUSH2 0x162A JUMPI DUP2 PUSH1 0x20 ADD PUSH1 0x1 DUP3 MUL DUP1 CALLDATASIZE DUP4 CALLDATACOPY DUP1 DUP3 ADD SWAP2 POP POP SWAP1 POP JUMPDEST POP SWAP1 POP DUP2 DUP2 MSTORE DUP4 PUSH1 0x20 DUP3 ADD MSTORE DUP1 SWAP3 POP POP POP SWAP2 SWAP1 POP JUMP JUMPDEST PUSH0 DUP1 PUSH1 0xFF DUP4 PUSH0 SHR AND SWAP1 POP PUSH1 0x1F DUP2 GT ISZERO PUSH2 0x1685 JUMPI PUSH1 0x40 MLOAD PUSH32 0xB3512B0C00000000000000000000000000000000000000000000000000000000 DUP2 MSTORE PUSH1 0x4 ADD PUSH1 0x40 MLOAD DUP1 SWAP2 SUB SWAP1 REVERT JUMPDEST DUP1 SWAP2 POP POP SWAP2 SWAP1 POP JUMP JUMPDEST PUSH0 DUP2 MLOAD SWAP1 POP SWAP2 SWAP1 POP JUMP JUMPDEST PUSH0 DUP3 DUP3 MSTORE PUSH1 0x20 DUP3 ADD SWAP1 POP SWAP3 SWAP2 POP POP JUMP JUMPDEST DUP3 DUP2 DUP4 MCOPY PUSH0 DUP4 DUP4 ADD MSTORE POP POP POP JUMP JUMPDEST PUSH0 PUSH1 0x1F NOT PUSH1 0x1F DUP4 ADD AND SWAP1 POP SWAP2 SWAP1 POP JUMP JUMPDEST PUSH0 PUSH2 0x16D0 DUP3 PUSH2 0x168E JUMP JUMPDEST PUSH2 0x16DA DUP2 DUP6 PUSH2 0x1698 JUMP JUMPDEST SWAP4 POP PUSH2 0x16EA DUP2 DUP6 PUSH1 0x20 DUP7 ADD PUSH2 0x16A8 JUMP JUMPDEST PUSH2 0x16F3 DUP2 PUSH2 0x16B6 JUMP JUMPDEST DUP5 ADD SWAP2 POP POP SWAP3 SWAP2 POP POP JUMP JUMPDEST PUSH0 PUSH1 0x20 DUP3 ADD SWAP1 POP DUP2 DUP2 SUB PUSH0 DUP4 ADD MSTORE PUSH2 0x1716 DUP2 DUP5 PUSH2 0x16C6 JUMP JUMPDEST SWAP1 POP SWAP3 SWAP2 POP POP JUMP JUMPDEST PUSH0 DUP1 REVERT JUMPDEST PUSH0 PUSH20 0xFFFFFFFFFFFFFFFFFFFFFFFFFFFFFFFFFFFFFFFF DUP3 AND SWAP1 POP SWAP2 SWAP1 POP JUMP JUMPDEST PUSH0 PUSH2 0x174B DUP3 PUSH2 0x1722 JUMP JUMPDEST SWAP1 POP SWAP2 SWAP1 POP JUMP JUMPDEST PUSH2 0x175B DUP2 PUSH2 0x1741 JUMP JUMPDEST DUP2 EQ PUSH2 0x1765 JUMPI PUSH0 DUP1 REVERT JUMPDEST POP JUMP JUMPDEST PUSH0 DUP2 CALLDATALOAD SWAP1 POP PUSH2 0x1776 DUP2 PUSH2 0x1752 JUMP JUMPDEST SWAP3 SWAP2 POP POP JUMP JUMPDEST PUSH0 DUP2 SWAP1 POP SWAP2 SWAP1 POP JUMP JUMPDEST PUSH2 0x178E DUP2 PUSH2 0x177C JUMP JUMPDEST DUP2 EQ PUSH2 0x1798 JUMPI PUSH0 DUP1 REVERT JUMPDEST POP JUMP JUMPDEST PUSH0 DUP2 CALLDATALOAD SWAP1 POP PUSH2 0x17A9 DUP2 PUSH2 0x1785 JUMP JUMPDEST SWAP3 SWAP2 POP POP JUMP JUMPDEST PUSH0 DUP1 PUSH1 0x40 DUP4 DUP6 SUB SLT ISZERO PUSH2 0x17C5 JUMPI PUSH2 0x17C4 PUSH2 0x171E JUMP JUMPDEST JUMPDEST PUSH0 PUSH2 0x17D2 DUP6 DUP3 DUP7 ADD PUSH2 0x1768 JUMP JUMPDEST SWAP3 POP POP PUSH1 0x20 PUSH2 0x17E3 DUP6 DUP3 DUP7 ADD PUSH2 0x179B JUMP JUMPDEST SWAP2 POP POP SWAP3 POP SWAP3 SWAP1 POP JUMP JUMPDEST PUSH0 DUP2 ISZERO ISZERO SWAP1 POP SWAP2 SWAP1 POP JUMP JUMPDEST PUSH2 0x1801 DUP2 PUSH2 0x17ED JUMP JUMPDEST DUP3 MSTORE POP POP JUMP JUMPDEST PUSH0 PUSH1 0x20 DUP3 ADD SWAP1 POP PUSH2 0x181A PUSH0 DUP4 ADD DUP5 PUSH2 0x17F8 JUMP JUMPDEST SWAP3 SWAP2 POP POP JUMP JUMPDEST PUSH2 0x1829 DUP2 PUSH2 0x177C JUMP JUMPDEST DUP3 MSTORE POP POP JUMP JUMPDEST PUSH0 PUSH1 0x20 DUP3 ADD SWAP1 POP PUSH2 0x1842 PUSH0 DUP4 ADD DUP5 PUSH2 0x1820 JUMP JUMPDEST SWAP3 SWAP2 POP POP JUMP JUMPDEST PUSH0 DUP1 PUSH0 PUSH1 0x60 DUP5 DUP7 SUB SLT ISZERO PUSH2 0x185F JUMPI PUSH2 0x185E PUSH2 0x171E JUMP JUMPDEST JUMPDEST PUSH0 PUSH2 0x186C DUP7 DUP3 DUP8 ADD PUSH2 0x1768 JUMP JUMPDEST SWAP4 POP POP PUSH1 0x20 PUSH2 0x187D DUP7 DUP3 DUP8 ADD PUSH2 0x1768 JUMP JUMPDEST SWAP3 POP POP PUSH1 0x40 PUSH2 0x188E DUP7 DUP3 DUP8 ADD PUSH2 0x179B JUMP JUMPDEST SWAP2 POP POP SWAP3 POP SWAP3 POP SWAP3 JUMP JUMPDEST PUSH0 PUSH1 0xFF DUP3 AND SWAP1 POP SWAP2 SWAP1 POP JUMP JUMPDEST PUSH2 0x18AD DUP2 PUSH2 0x1898 JUMP JUMPDEST DUP3 MSTORE POP POP JUMP JUMPDEST PUSH0 PUSH1 0x20 DUP3 ADD SWAP1 POP PUSH2 0x18C6 PUSH0 DUP4 ADD DUP5 PUSH2 0x18A4 JUMP JUMPDEST SWAP3 SWAP2 POP POP JUMP JUMPDEST PUSH0 DUP2 SWAP1 POP SWAP2 SWAP1 POP JUMP JUMPDEST PUSH2 0x18DE DUP2 PUSH2 0x18CC JUMP JUMPDEST DUP3 MSTORE POP POP JUMP JUMPDEST PUSH0 PUSH1 0x20 DUP3 ADD SWAP1 POP PUSH2 0x18F7 PUSH0 DUP4 ADD DUP5 PUSH2 0x18D5 JUMP JUMPDEST SWAP3 SWAP2 POP POP JUMP JUMPDEST PUSH0 PUSH1 0x20 DUP3 DUP5 SUB SLT ISZERO PUSH2 0x1912 JUMPI PUSH2 0x1911 PUSH2 0x171E JUMP JUMPDEST JUMPDEST PUSH0 PUSH2 0x191F DUP5 DUP3 DUP6 ADD PUSH2 0x1768 JUMP JUMPDEST SWAP2 POP POP SWAP3 SWAP2 POP POP JUMP JUMPDEST PUSH0 PUSH32 0xFF00000000000000000000000000000000000000000000000000000000000000 DUP3 AND SWAP1 POP SWAP2 SWAP1 POP JUMP JUMPDEST PUSH2 0x195C DUP2 PUSH2 0x1928 JUMP JUMPDEST DUP3 MSTORE POP POP JUMP JUMPDEST PUSH2 0x196B DUP2 PUSH2 0x1741 JUMP JUMPDEST DUP3 MSTORE POP POP JUMP JUMPDEST PUSH0 DUP2 MLOAD SWAP1 POP SWAP2 SWAP1 POP JUMP JUMPDEST PUSH0 DUP3 DUP3 MSTORE PUSH1 0x20 DUP3 ADD SWAP1 POP SWAP3 SWAP2 POP POP JUMP JUMPDEST PUSH0 DUP2 SWAP1 POP PUSH1 0x20 DUP3 ADD SWAP1 POP SWAP2 SWAP1 POP JUMP JUMPDEST PUSH2 0x19A3 DUP2 PUSH2 0x177C JUMP JUMPDEST DUP3 MSTORE POP POP JUMP JUMPDEST PUSH0 PUSH2 0x19B4 DUP4 DUP4 PUSH2 0x199A JUMP JUMPDEST PUSH1 0x20 DUP4 ADD SWAP1 POP SWAP3 SWAP2 POP POP JUMP JUMPDEST PUSH0 PUSH1 0x20 DUP3 ADD SWAP1 POP SWAP2 SWAP1 POP JUMP JUMPDEST PUSH0 PUSH2 0x19D6 DUP3 PUSH2 0x1971 JUMP JUMPDEST PUSH2 0x19E0 DUP2 DUP6 PUSH2 0x197B JUMP JUMPDEST SWAP4 POP PUSH2 0x19EB DUP4 PUSH2 0x198B JUMP JUMPDEST DUP1 PUSH0 JUMPDEST DUP4 DUP2 LT ISZERO PUSH2 0x1A1B JUMPI DUP2 MLOAD PUSH2 0x1A02 DUP9 DUP3 PUSH2 0x19A9 JUMP JUMPDEST SWAP8 POP PUSH2 0x1A0D DUP4 PUSH2 0x19C0 JUMP JUMPDEST SWAP3 POP POP PUSH1 0x1 DUP2 ADD SWAP1 POP PUSH2 0x19EE JUMP JUMPDEST POP DUP6 SWAP4 POP POP POP POP SWAP3 SWAP2 POP POP JUMP JUMPDEST PUSH0 PUSH1 0xE0 DUP3 ADD SWAP1 POP PUSH2 0x1A3B PUSH0 DUP4 ADD DUP11 PUSH2 0x1953 JUMP JUMPDEST DUP2 DUP2 SUB PUSH1 0x20 DUP4 ADD MSTORE PUSH2 0x1A4D DUP2 DUP10 PUSH2 0x16C6 JUMP JUMPDEST SWAP1 POP DUP2 DUP2 SUB PUSH1 0x40 DUP4 ADD MSTORE PUSH2 0x1A61 DUP2 DUP9 PUSH2 0x16C6 JUMP JUMPDEST SWAP1 POP PUSH2 0x1A70 PUSH1 0x60 DUP4 ADD DUP8 PUSH2 0x1820 JUMP JUMPDEST PUSH2 0x1A7D PUSH1 0x80 DUP4 ADD DUP7 PUSH2 0x1962 JUMP JUMPDEST PUSH2 0x1A8A PUSH1 0xA0 DUP4 ADD DUP6 PUSH2 0x18D5 JUMP JUMPDEST DUP2 DUP2 SUB PUSH1 0xC0 DUP4 ADD MSTORE PUSH2 0x1A9C DUP2 DUP5 PUSH2 0x19CC JUMP JUMPDEST SWAP1 POP SWAP9 SWAP8 POP POP POP POP POP POP POP POP JUMP JUMPDEST PUSH0 PUSH1 0x20 DUP3 ADD SWAP1 POP PUSH2 0x1ABD PUSH0 DUP4 ADD DUP5 PUSH2 0x1962 JUMP JUMPDEST SWAP3 SWAP2 POP POP JUMP JUMPDEST PUSH2 0x1ACC DUP2 PUSH2 0x1898 JUMP JUMPDEST DUP2 EQ PUSH2 0x1AD6 JUMPI PUSH0 DUP1 REVERT JUMPDEST POP JUMP JUMPDEST PUSH0 DUP2 CALLDATALOAD SWAP1 POP PUSH2 0x1AE7 DUP2 PUSH2 0x1AC3 JUMP JUMPDEST SWAP3 SWAP2 POP POP JUMP JUMPDEST PUSH2 0x1AF6 DUP2 PUSH2 0x18CC JUMP JUMPDEST DUP2 EQ PUSH2 0x1B00 JUMPI PUSH0 DUP1 REVERT JUMPDEST POP JUMP JUMPDEST PUSH0 DUP2 CALLDATALOAD SWAP1 POP PUSH2 0x1B11 DUP2 PUSH2 0x1AED JUMP JUMPDEST SWAP3 SWAP2 POP POP JUMP JUMPDEST PUSH0 DUP1 PUSH0 DUP1 PUSH0 DUP1 PUSH0 PUSH1 0xE0 DUP9 DUP11 SUB SLT ISZERO PUSH2 0x1B32 JUMPI PUSH2 0x1B31 PUSH2 0x171E JUMP JUMPDEST JUMPDEST PUSH0 PUSH2 0x1B3F DUP11 DUP3 DUP12 ADD PUSH2 0x1768 JUMP JUMPDEST SWAP8 POP POP PUSH1 0x20 PUSH2 0x1B50 DUP11 DUP3 DUP12 ADD PUSH2 0x1768 JUMP JUMPDEST SWAP7 POP POP PUSH1 0x40 PUSH2 0x1B61 DUP11 DUP3 DUP12 ADD PUSH2 0x179B JUMP JUMPDEST SWAP6 POP POP PUSH1 0x60 PUSH2 0x1B72 DUP11 DUP3 DUP12 ADD PUSH2 0x179B JUMP JUMPDEST SWAP5 POP POP PUSH1 0x80 PUSH2 0x1B83 DUP11 DUP3 DUP12 ADD PUSH2 0x1AD9 JUMP JUMPDEST SWAP4 POP POP PUSH1 0xA0 PUSH2 0x1B94 DUP11 DUP3 DUP12 ADD PUSH2 0x1B03 JUMP JUMPDEST SWAP3 POP POP PUSH1 0xC0 PUSH2 0x1BA5 DUP11 DUP3 DUP12 ADD PUSH2 0x1B03 JUMP JUMPDEST SWAP2 POP POP SWAP3 SWAP6 SWAP9 SWAP2 SWAP5 SWAP8 POP SWAP3 SWAP6 POP JUMP JUMPDEST PUSH0 DUP1 PUSH1 0x40 DUP4 DUP6 SUB SLT ISZERO PUSH2 0x1BCA JUMPI PUSH2 0x1BC9 PUSH2 0x171E JUMP JUMPDEST JUMPDEST PUSH0 PUSH2 0x1BD7 DUP6 DUP3 DUP7 ADD PUSH2 0x1768 JUMP JUMPDEST SWAP3 POP POP PUSH1 0x20 PUSH2 0x1BE8 DUP6 DUP3 DUP7 ADD PUSH2 0x1768 JUMP JUMPDEST SWAP2 POP POP SWAP3 POP SWAP3 SWAP1 POP JUMP JUMPDEST PUSH32 0x4E487B7100000000000000000000000000000000000000000000000000000000 PUSH0 MSTORE PUSH1 0x22 PUSH1 0x4 MSTORE PUSH1 0x24 PUSH0 REVERT JUMPDEST PUSH0 PUSH1 0x2 DUP3 DIV SWAP1 POP PUSH1 0x1 DUP3 AND DUP1 PUSH2 0x1C36 JUMPI PUSH1 0x7F DUP3 AND SWAP2 POP JUMPDEST PUSH1 0x20 DUP3 LT DUP2 SUB PUSH2 0x1C49 JUMPI PUSH2 0x1C48 PUSH2 0x1BF2 JUMP JUMPDEST JUMPDEST POP SWAP2 SWAP1 POP JUMP JUMPDEST PUSH32 0x4E487B7100000000000000000000000000000000000000000000000000000000 PUSH0 MSTORE PUSH1 0x41 PUSH1 0x4 MSTORE PUSH1 0x24 PUSH0 REVERT JUMPDEST PUSH0 PUSH1 0xC0 DUP3 ADD SWAP1 POP PUSH2 0x1C8F PUSH0 DUP4 ADD DUP10 PUSH2 0x18D5 JUMP JUMPDEST PUSH2 0x1C9C PUSH1 0x20 DUP4 ADD DUP9 PUSH2 0x1962 JUMP JUMPDEST PUSH2 0x1CA9 PUSH1 0x40 DUP4 ADD DUP8 PUSH2 0x1962 JUMP JUMPDEST PUSH2 0x1CB6 PUSH1 0x60 DUP4 ADD DUP7 PUSH2 0x1820 JUMP JUMPDEST PUSH2 0x1CC3 PUSH1 0x80 DUP4 ADD DUP6 PUSH2 0x1820 JUMP JUMPDEST PUSH2 0x1CD0 PUSH1 0xA0 DUP4 ADD DUP5 PUSH2 0x1820 JUMP JUMPDEST SWAP8 SWAP7 POP POP POP POP POP POP POP JUMP JUMPDEST PUSH0 PUSH1 0x40 DUP3 ADD SWAP1 POP PUSH2 0x1CEE PUSH0 DUP4 ADD DUP6 PUSH2 0x1962 JUMP JUMPDEST PUSH2 0x1CFB PUSH1 0x20 DUP4 ADD DUP5 PUSH2 0x1962 JUMP JUMPDEST SWAP4 SWAP3 POP POP POP JUMP JUMPDEST PUSH0 PUSH1 0x60 DUP3 ADD SWAP1 POP PUSH2 0x1D15 PUSH0 DUP4 ADD DUP7 PUSH2 0x1962 JUMP JUMPDEST PUSH2 0x1D22 PUSH1 0x20 DUP4 ADD DUP6 PUSH2 0x1820 JUMP JUMPDEST PUSH2 0x1D2F PUSH1 0x40 DUP4 ADD DUP5 PUSH2 0x1820 JUMP JUMPDEST SWAP5 SWAP4 POP POP POP POP JUMP JUMPDEST PUSH32 0x4E487B7100000000000000000000000000000000000000000000000000000000 PUSH0 MSTORE PUSH1 0x11 PUSH1 0x4 MSTORE PUSH1 0x24 PUSH0 REVERT JUMPDEST PUSH0 PUSH2 0x1D6E DUP3 PUSH2 0x177C JUMP JUMPDEST SWAP2 POP PUSH2 0x1D79 DUP4 PUSH2 0x177C JUMP JUMPDEST SWAP3 POP DUP3 DUP3 ADD SWAP1 POP DUP1 DUP3 GT ISZERO PUSH2 0x1D91 JUMPI PUSH2 0x1D90 PUSH2 0x1D37 JUMP JUMPDEST JUMPDEST SWAP3 SWAP2 POP POP JUMP JUMPDEST PUSH0 PUSH1 0xA0 DUP3 ADD SWAP1 POP PUSH2 0x1DAA PUSH0 DUP4 ADD DUP9 PUSH2 0x18D5 JUMP JUMPDEST PUSH2 0x1DB7 PUSH1 0x20 DUP4 ADD DUP8 PUSH2 0x18D5 JUMP JUMPDEST PUSH2 0x1DC4 PUSH1 0x40 DUP4 ADD DUP7 PUSH2 0x18D5 JUMP JUMPDEST PUSH2 0x1DD1 PUSH1 0x60 DUP4 ADD DUP6 PUSH2 0x1820 JUMP JUMPDEST PUSH2 0x1DDE PUSH1 0x80 DUP4 ADD DUP5 PUSH2 0x1962 JUMP JUMPDEST SWAP7 SWAP6 POP POP POP POP POP POP JUMP JUMPDEST PUSH0 PUSH1 0x80 DUP3 ADD SWAP1 POP PUSH2 0x1DFB PUSH0 DUP4 ADD DUP8 PUSH2 0x18D5 JUMP JUMPDEST PUSH2 0x1E08 PUSH1 0x20 DUP4 ADD DUP7 PUSH2 0x18A4 JUMP JUMPDEST PUSH2 0x1E15 PUSH1 0x40 DUP4 ADD DUP6 PUSH2 0x18D5 JUMP JUMPDEST PUSH2 0x1E22 PUSH1 0x60 DUP4 ADD DUP5 PUSH2 0x18D5 JUMP JUMPDEST SWAP6 SWAP5 POP POP POP POP POP JUMP JUMPDEST PUSH32 0x4E487B7100000000000000000000000000000000000000000000000000000000 PUSH0 MSTORE PUSH1 0x21 PUSH1 0x4 MSTORE PUSH1 0x24 PUSH0 REVERT INVALID LOG2 PUSH5 0x6970667358 0x22 SLT KECCAK256 0xEF GAS 0xF DUP2 PUSH7 0xC897C8EAE57CFF 0x4E 0xB9 PUSH11 0x3F7AA561011C2D477ED4FE DUP2 CALLVALUE 0x1F INVALID 0xE9 0xBC PUSH5 0x736F6C6343 STOP ADDMOD BYTE STOP CALLER LOG2 PUSH5 0x6970667358 0x22 SLT KECCAK256 0xE8 PUSH1 0xB1 SWAP2 MLOAD SWAP6 PUSH8 0x606923E6DF223CF8 PUSH9 0x9D5AD6283DD66A1E84 BYTE PUSH0 PUSH29 0x1664863064736F6C634300081A00330000000000000000000000000000 "
		},
		"gasEstimates": {
			"creation": {
				"codeDepositCost": "2840200",
				"executionCost": "3098",
				"totalCost": "2843298"
			},
			"external": {
				"createToken(address,uint256,string,string)": "infinite"
			}
		},
		"methodIdentifiers": {
			"createToken(address,uint256,string,string)": "2b4b4017"
		}
	},
	"abi": [
		{
			"anonymous": false,
			"inputs": [
				{
					"indexed": true,
					"internalType": "address",
					"name": "tokenAddress",
					"type": "address"
				},
				{
					"indexed": true,
					"internalType": "address",
					"name": "owner",
					"type": "address"
				},
				{
					"indexed": false,
					"internalType": "uint256",
					"name": "initialSupply",
					"type": "uint256"
				},
				{
					"indexed": false,
					"internalType": "string",
					"name": "name",
					"type": "string"
				},
				{
					"indexed": false,
					"internalType": "string",
					"name": "symbol",
					"type": "string"
				}
			],
			"name": "TokenCreated",
			"type": "event"
		},
		{
			"inputs": [
				{
					"internalType": "address",
					"name": "initialOwner",
					"type": "address"
				},
				{
					"internalType": "uint256",
					"name": "initialSupply",
					"type": "uint256"
				},
				{
					"internalType": "string",
					"name": "name",
					"type": "string"
				},
				{
					"internalType": "string",
					"name": "symbol",
					"type": "string"
				}
			],
			"name": "createToken",
			"outputs": [
				{
					"internalType": "address",
					"name": "",
					"type": "address"
				}
			],
			"stateMutability": "nonpayable",
			"type": "function"
		}
	]
}